{
  "_format": "hh-sol-artifact-1",
  "contractName": "MemeDex",
  "sourceName": "contracts/MemeDex.sol",
  "abi": [
    {
      "inputs": [
        {
          "internalType": "address",
          "name": "_treasury",
          "type": "address"
        }
      ],
      "stateMutability": "nonpayable",
      "type": "constructor"
    },
    {
      "anonymous": false,
      "inputs": [
        {
          "indexed": true,
          "internalType": "address",
          "name": "token",
          "type": "address"
        },
        {
          "indexed": false,
          "internalType": "uint256",
          "name": "virtualHbar",
          "type": "uint256"
        },
        {
          "indexed": false,
          "internalType": "uint256",
          "name": "virtualToken",
          "type": "uint256"
        }
      ],
      "name": "PoolInitialized",
      "type": "event"
    },
    {
      "anonymous": false,
      "inputs": [
        {
          "indexed": true,
          "internalType": "address",
          "name": "buyer",
          "type": "address"
        },
        {
          "indexed": true,
          "internalType": "address",
          "name": "token",
          "type": "address"
        },
        {
          "indexed": false,
          "internalType": "uint256",
          "name": "hbarAmount",
          "type": "uint256"
        },
        {
          "indexed": false,
          "internalType": "uint256",
          "name": "tokenAmount",
          "type": "uint256"
        }
      ],
      "name": "TokenBought",
      "type": "event"
    },
    {
      "anonymous": false,
      "inputs": [
        {
          "indexed": true,
          "internalType": "address",
          "name": "seller",
          "type": "address"
        },
        {
          "indexed": true,
          "internalType": "address",
          "name": "token",
          "type": "address"
        },
        {
          "indexed": false,
          "internalType": "uint256",
          "name": "tokenAmount",
          "type": "uint256"
        },
        {
          "indexed": false,
          "internalType": "uint256",
          "name": "hbarAmount",
          "type": "uint256"
        }
      ],
      "name": "TokenSold",
      "type": "event"
    },
    {
      "inputs": [],
      "name": "VIRTUAL_HBAR_RESERVE",
      "outputs": [
        {
          "internalType": "uint256",
          "name": "",
          "type": "uint256"
        }
      ],
      "stateMutability": "view",
      "type": "function"
    },
    {
      "inputs": [],
      "name": "VIRTUAL_TOKEN_RESERVE",
      "outputs": [
        {
          "internalType": "uint256",
          "name": "",
          "type": "uint256"
        }
      ],
      "stateMutability": "view",
      "type": "function"
    },
    {
      "inputs": [
        {
          "internalType": "address",
          "name": "token",
          "type": "address"
        },
        {
          "internalType": "uint256",
          "name": "minTokensOut",
          "type": "uint256"
        }
      ],
      "name": "buyTokens",
      "outputs": [],
      "stateMutability": "payable",
      "type": "function"
    },
    {
      "inputs": [],
      "name": "factory",
      "outputs": [
        {
          "internalType": "address",
          "name": "",
          "type": "address"
        }
      ],
      "stateMutability": "view",
      "type": "function"
    },
    {
      "inputs": [
        {
          "internalType": "address",
          "name": "token",
          "type": "address"
        },
        {
          "internalType": "uint256",
          "name": "hbarAmount",
          "type": "uint256"
        }
      ],
      "name": "getAmountOutBuy",
      "outputs": [
        {
          "internalType": "uint256",
          "name": "",
          "type": "uint256"
        }
      ],
      "stateMutability": "view",
      "type": "function"
    },
    {
      "inputs": [
        {
          "internalType": "address",
          "name": "token",
          "type": "address"
        },
        {
          "internalType": "uint256",
          "name": "tokenAmount",
          "type": "uint256"
        }
      ],
      "name": "getAmountOutSell",
      "outputs": [
        {
          "internalType": "uint256",
          "name": "",
          "type": "uint256"
        }
      ],
      "stateMutability": "view",
      "type": "function"
    },
    {
      "inputs": [
        {
          "internalType": "address",
          "name": "token",
          "type": "address"
        }
      ],
      "name": "initializePool",
      "outputs": [],
      "stateMutability": "nonpayable",
      "type": "function"
    },
    {
      "inputs": [
        {
          "internalType": "address",
          "name": "",
          "type": "address"
        }
      ],
      "name": "pools",
      "outputs": [
        {
          "internalType": "uint256",
          "name": "virtualHbar",
          "type": "uint256"
        },
        {
          "internalType": "uint256",
          "name": "virtualToken",
          "type": "uint256"
        },
        {
          "internalType": "uint256",
          "name": "realHbar",
          "type": "uint256"
        },
        {
          "internalType": "uint256",
          "name": "realToken",
          "type": "uint256"
        },
        {
          "internalType": "bool",
          "name": "isInitialized",
          "type": "bool"
        }
      ],
      "stateMutability": "view",
      "type": "function"
    },
    {
      "inputs": [
        {
          "internalType": "address",
          "name": "token",
          "type": "address"
        },
        {
          "internalType": "uint256",
          "name": "tokenAmount",
          "type": "uint256"
        },
        {
          "internalType": "uint256",
          "name": "minHbarOut",
          "type": "uint256"
        }
      ],
      "name": "sellTokens",
      "outputs": [],
      "stateMutability": "nonpayable",
      "type": "function"
    },
    {
      "inputs": [
        {
          "internalType": "address",
          "name": "_factory",
          "type": "address"
        }
      ],
      "name": "setFactory",
      "outputs": [],
      "stateMutability": "nonpayable",
      "type": "function"
    },
    {
      "inputs": [],
      "name": "treasury",
      "outputs": [
        {
          "internalType": "address",
          "name": "",
          "type": "address"
        }
      ],
      "stateMutability": "view",
      "type": "function"
    }
  ],
  "bytecode": "0x608060405234801561001057600080fd5b506040516110ac3803806110ac83398101604081905261002f91610054565b600180546001600160a01b0319166001600160a01b0392909216919091179055610084565b60006020828403121561006657600080fd5b81516001600160a01b038116811461007d57600080fd5b9392505050565b611019806100936000396000f3fe60806040526004361061009c5760003560e01c806361d027b31161006457806361d027b3146101495780637e309b92146101815780639fecf5271461019d578063a4063dbc146101bb578063c45a015514610232578063e4e57b9e1461025257600080fd5b80630752881a146100a157806329e0fc13146100b65780632d8dfc9f146100e9578063407431f7146101095780635bb4780814610129575b600080fd5b6100b46100af366004610e86565b610272565b005b3480156100c257600080fd5b506100d66100d1366004610e86565b6105ff565b6040519081526020015b60405180910390f35b3480156100f557600080fd5b506100d6610104366004610e86565b6106cf565b34801561011557600080fd5b506100b4610124366004610eb0565b61078f565b34801561013557600080fd5b506100b4610144366004610eb0565b61097d565b34801561015557600080fd5b50600154610169906001600160a01b031681565b6040516001600160a01b0390911681526020016100e0565b34801561018d57600080fd5b506100d667016345785d8a000081565b3480156101a957600080fd5b506100d669065a4da25d3016c0000081565b3480156101c757600080fd5b506102086101d6366004610eb0565b600260208190526000918252604090912080546001820154928201546003830154600490930154919392909160ff1685565b6040805195865260208601949094529284019190915260608301521515608082015260a0016100e0565b34801561023e57600080fd5b50600054610169906001600160a01b031681565b34801561025e57600080fd5b506100b461026d366004610ed2565b6109ee565b6001600160a01b0382166000908152600260205260409020600481015460ff166102b75760405162461bcd60e51b81526004016102ae90610f05565b60405180910390fd5b600034116102f85760405162461bcd60e51b815260206004820152600e60248201526d26bab9ba1039b2b73210242120a960911b60448201526064016102ae565b6000610305606434610f49565b905060006103138234610f6b565b905060008184600101546103279190610f7e565b9050600082856000015461033b9190610f95565b905060006103498284610f49565b90508681101561039b5760405162461bcd60e51b815260206004820152601b60248201527f536c69707061676520746f6c6572616e6365206578636565646564000000000060448201526064016102ae565b85600301548111156103ef5760405162461bcd60e51b815260206004820152601e60248201527f4e6f7420656e6f756768207265616c20746f6b656e7320696e20706f6f6c000060448201526064016102ae565b838660000160008282546104039190610f95565b925050819055508086600101600082825461041e9190610f6b565b92505081905550838660020160008282546104399190610f95565b92505081905550808660030160008282546104549190610f6b565b909155505084156104fa576001546040516000916001600160a01b03169087908381818185875af1925050503d80600081146104ac576040519150601f19603f3d011682016040523d82523d6000602084013e6104b1565b606091505b50509050806104f85760405162461bcd60e51b8152602060048201526013602482015272119959481d1c985b9cd9995c8819985a5b1959606a1b60448201526064016102ae565b505b60405163a9059cbb60e01b8152336004820152602481018290526001600160a01b0389169063a9059cbb906044016020604051808303816000875af1158015610547573d6000803e3d6000fd5b505050506040513d601f19601f8201168201806040525081019061056b9190610fa8565b6105af5760405162461bcd60e51b8152602060048201526015602482015274151bdad95b881d1c985b9cd9995c8819985a5b1959605a1b60448201526064016102ae565b60408051348152602081018390526001600160a01b038a169133917f9fa236593f411affe147142a606176190ea6b18be0643332f081175cfe608b6b910160405180910390a35050505050505050565b6001600160a01b0382166000908152600260208181526040808420815160a0810183528154815260018201549381019390935292830154908201526003820154606082015260049091015460ff161515608082018190526106725760405162461bcd60e51b81526004016102ae90610f05565b600061067f606485610f49565b9050600061068d8286610f6b565b905060008184602001516106a19190610f7e565b905060008285600001516106b59190610f95565b90506106c18183610f49565b955050505050505b92915050565b6001600160a01b0382166000908152600260208181526040808420815160a0810183528154815260018201549381019390935292830154908201526003820154606082015260049091015460ff161515608082018190526107425760405162461bcd60e51b81526004016102ae90610f05565b8051600090610752908590610f7e565b905060008483602001516107669190610f95565b905060006107748284610f49565b90506000610783606483610f49565b90506106c18183610f6b565b6000546001600160a01b031633146107e15760405162461bcd60e51b815260206004820152601560248201527413db9b1e48199858dd1bdc9e4818d85b8818d85b1b605a1b60448201526064016102ae565b6001600160a01b03811660009081526002602052604090206004015460ff161561084d5760405162461bcd60e51b815260206004820152601860248201527f506f6f6c20616c726561647920696e697469616c697a6564000000000000000060448201526064016102ae565b6040516370a0823160e01b81523060048201526000906001600160a01b038316906370a0823190602401602060405180830381865afa158015610894573d6000803e3d6000fd5b505050506040513d601f19601f820116820180604052508101906108b89190610fca565b6040805160a08101825269065a4da25d3016c0000080825267016345785d8a000060208084018281526000858701818152606087018981526001608089018181526001600160a01b038e168086526002808952958c90209a518b559551918a019190915591519288019290925590516003870155516004909501805460ff1916951515959095179094558451928352820152929350917f997f3e422a7446ccf056e7a989c8a281f20af906a7ac6ad0e6f9fea0edd6055c910160405180910390a25050565b6000546001600160a01b0316156109cc5760405162461bcd60e51b8152602060048201526013602482015272119858dd1bdc9e48185b1c9958591e481cd95d606a1b60448201526064016102ae565b600080546001600160a01b0319166001600160a01b0392909216919091179055565b6001600160a01b0383166000908152600260205260409020600481015460ff16610a2a5760405162461bcd60e51b81526004016102ae90610f05565b60008311610a6d5760405162461bcd60e51b815260206004820152601060248201526f4d7573742073656c6c20746f6b656e7360801b60448201526064016102ae565b6040516323b872dd60e01b8152336004820152306024820152604481018490526001600160a01b038516906323b872dd906064016020604051808303816000875af1158015610ac0573d6000803e3d6000fd5b505050506040513d601f19601f82011682018060405250810190610ae49190610fa8565b610b305760405162461bcd60e51b815260206004820152601960248201527f546f6b656e207472616e7366657246726f6d206661696c65640000000000000060448201526064016102ae565b8054600090610b40908590610f7e565b90506000848360010154610b549190610f95565b90506000610b628284610f49565b90506000610b71606483610f49565b90506000610b7f8284610f6b565b905086811015610bd15760405162461bcd60e51b815260206004820152601b60248201527f536c69707061676520746f6c6572616e6365206578636565646564000000000060448201526064016102ae565b610bdb8247610f6b565b811115610c2a5760405162461bcd60e51b815260206004820152601760248201527f4e6f7420656e6f756768204842415220696e20706f6f6c00000000000000000060448201526064016102ae565b8560020154811115610c7e5760405162461bcd60e51b815260206004820152601c60248201527f4e6f7420656e6f756768207265616c204842415220696e20706f6f6c0000000060448201526064016102ae565b82866000016000828254610c929190610f6b565b9250508190555087866001016000828254610cad9190610f95565b9250508190555082866002016000828254610cc89190610f6b565b9250508190555087866003016000828254610ce39190610f95565b90915550508115610d89576001546040516000916001600160a01b03169084908381818185875af1925050503d8060008114610d3b576040519150601f19603f3d011682016040523d82523d6000602084013e610d40565b606091505b5050905080610d875760405162461bcd60e51b8152602060048201526013602482015272119959481d1c985b9cd9995c8819985a5b1959606a1b60448201526064016102ae565b505b604051600090339083908381818185875af1925050503d8060008114610dcb576040519150601f19603f3d011682016040523d82523d6000602084013e610dd0565b606091505b5050905080610e185760405162461bcd60e51b815260206004820152601460248201527312109054881d1c985b9cd9995c8819985a5b195960621b60448201526064016102ae565b604080518a8152602081018490526001600160a01b038c169133917fa8a7473f10e62cf9687e243de1c3ac8b3cbc3dd04b96826beb3a65b595385814910160405180910390a350505050505050505050565b80356001600160a01b0381168114610e8157600080fd5b919050565b60008060408385031215610e9957600080fd5b610ea283610e6a565b946020939093013593505050565b600060208284031215610ec257600080fd5b610ecb82610e6a565b9392505050565b600080600060608486031215610ee757600080fd5b610ef084610e6a565b95602085013595506040909401359392505050565b602080825260149082015273141bdbdb081b9bdd081a5b9a5d1a585b1a5e995960621b604082015260600190565b634e487b7160e01b600052601160045260246000fd5b600082610f6657634e487b7160e01b600052601260045260246000fd5b500490565b818103818111156106c9576106c9610f33565b80820281158282048414176106c9576106c9610f33565b808201808211156106c9576106c9610f33565b600060208284031215610fba57600080fd5b81518015158114610ecb57600080fd5b600060208284031215610fdc57600080fd5b505191905056fea2646970667358221220df5b4eed1e0c0602e59627bc7cda7be5a8bdb7c497f8159493f240309a3c0c8064736f6c63430008140033",
  "linkReferences": {},
  "deployedLinkReferences": {}
}