{
  "_format": "hh-sol-artifact-1",
  "contractName": "MemeFactoryHTSDelegate",
  "sourceName": "contracts/MemeFactoryHTSDelegate.sol",
  "abi": [
    {
      "anonymous": false,
      "inputs": [
        {
          "indexed": false,
          "internalType": "int64",
          "name": "responseCode",
          "type": "int64"
        }
      ],
      "name": "DebugResponse",
      "type": "event"
    },
    {
      "anonymous": false,
      "inputs": [
        {
          "indexed": true,
          "internalType": "address",
          "name": "creator",
          "type": "address"
        },
        {
          "indexed": false,
          "internalType": "address",
          "name": "tokenAddress",
          "type": "address"
        },
        {
          "indexed": false,
          "internalType": "string",
          "name": "name",
          "type": "string"
        },
        {
          "indexed": false,
          "internalType": "string",
          "name": "symbol",
          "type": "string"
        },
        {
          "indexed": false,
          "internalType": "string",
          "name": "imageUrl",
          "type": "string"
        }
      ],
      "name": "MemeLaunched",
      "type": "event"
    },
    {
      "inputs": [
        {
          "internalType": "string",
          "name": "name",
          "type": "string"
        },
        {
          "internalType": "string",
          "name": "symbol",
          "type": "string"
        },
        {
          "internalType": "int64",
          "name": "initialSupply",
          "type": "int64"
        },
        {
          "internalType": "string",
          "name": "imageUrl",
          "type": "string"
        }
      ],
      "name": "createMemeToken",
      "outputs": [
        {
          "internalType": "address",
          "name": "",
          "type": "address"
        }
      ],
      "stateMutability": "nonpayable",
      "type": "function"
    }
  ],
  "bytecode": "0x608060405234801561001057600080fd5b506108b0806100206000396000f3fe608060405234801561001057600080fd5b506004361061002b5760003560e01c8063e88b3cdf14610030575b600080fd5b61004361003e3660046104cb565b61005f565b6040516001600160a01b03909116815260200160405180910390f35b604080516001808252818301909252600091829190816020015b6100816103b9565b8152602001906001900390816100795790505090506040518060400160405280600181526020016040518060a0016040528060011515815260200160006001600160a01b03168152602001600067ffffffffffffffff8111156100e6576100e6610416565b6040519080825280601f01601f191660200182016040528015610110576020820181803683370190505b5081526040805160008082526020808301845284019190915291018190529152825183919061014157610141610568565b60209081029190910181019190915260408051606080820183526000808352338386018190526276a700848601528451610120810186528c81529586018b9052858501529084018790526080840181905260a0840181905260c0840181905260e0840185905261010084018290529151909291906364ef9ec560e01b906101d19084908a90600890602401610699565b604051602081830303815290604052906001600160e01b0319166020820180516001600160e01b03838183161783525050505090506000806101676001600160a01b03168360405161022391906107c3565b600060405180830381855af49150503d806000811461025e576040519150601f19603f3d011682016040523d82523d6000602084013e610263565b606091505b5091509150816102ba5760405162461bcd60e51b815260206004820152601a60248201527f44656c656761746563616c6c20746f20485453206661696c656400000000000060448201526064015b60405180910390fd5b600080828060200190518101906102d191906107df565b604051600783900b815291935091507f65f0ff6f6f8cc1b3ac8ae3d76da2a0ad35a52c26f3991c177b74ccdc87080f5f9060200160405180910390a18160070b6016146103605760405162461bcd60e51b815260206004820152601e60248201527f48545320507265636f6d70696c6520526573706f6e7365204661696c6564000060448201526064016102b1565b336001600160a01b03167fd7cbed4ccc2d30f2567af3bf682d3f2a07e5855c61c27ee2211330951ec4196b828f8f8e60405161039f9493929190610825565b60405180910390a29750505050505050505b949350505050565b6040518060400160405280600081526020016104116040518060a0016040528060001515815260200160006001600160a01b03168152602001606081526020016060815260200160006001600160a01b031681525090565b905290565b634e487b7160e01b600052604160045260246000fd5b600082601f83011261043d57600080fd5b813567ffffffffffffffff8082111561045857610458610416565b604051601f8301601f19908116603f0116810190828211818310171561048057610480610416565b8160405283815286602085880101111561049957600080fd5b836020870160208301376000602085830101528094505050505092915050565b8060070b81146104c857600080fd5b50565b600080600080608085870312156104e157600080fd5b843567ffffffffffffffff808211156104f957600080fd5b6105058883890161042c565b9550602087013591508082111561051b57600080fd5b6105278883890161042c565b945060408701359150610539826104b9565b9092506060860135908082111561054f57600080fd5b5061055c8782880161042c565b91505092959194509250565b634e487b7160e01b600052603260045260246000fd5b60005b83811015610599578181015183820152602001610581565b50506000910152565b600081518084526105ba81602086016020860161057e565b601f01601f19169290920160200192915050565b600082825180855260208086019550808260051b84010181860160005b8481101561068c57858303601f1901895281518051845284015160408585018190528151151581860152818601516001600160a01b039081166060808801919091529183015160a0608080890182905291939092909161064e60e08a01866105a2565b92860151898403603f1901858b015292945061066a85846105a2565b9501511660c097909701969096525050988401989250908301906001016105eb565b5090979650505050505050565b60608152600084516101608060608501526106b86101c08501836105a2565b91506020870151605f19808685030160808701526106d684836105a2565b9350604089015191506106f460a08701836001600160a01b03169052565b60608901519150808685030160c087015261070f84836105a2565b93506080890151915061072660e087018315159052565b60a089015191506101006107418188018463ffffffff169052565b60c08a0151151561012088015260e08a01518786038301610140890152925061076a85846105ce565b9450808a0151925050506107a682860182805163ffffffff90811683526020808301516001600160a01b03169084015260409182015116910152565b5050600785900b602084015290506103b1604083018460030b9052565b600082516107d581846020870161057e565b9190910192915050565b600080604083850312156107f257600080fd5b82516107fd816104b9565b60208401519092506001600160a01b038116811461081a57600080fd5b809150509250929050565b6001600160a01b0385168152608060208201819052600090610849908301866105a2565b828103604084015261085b81866105a2565b9050828103606084015261086f81856105a2565b97965050505050505056fea26469706673582212203dab23b1e74337f223362f429fcd9f924120d761fd11ec10fb0a6ed1113be1f264736f6c63430008140033",
  "linkReferences": {},
  "deployedLinkReferences": {}
}