{"contracts/LiquidityPoolHTS.sol":{"LiquidityPoolHTS":{"abi":[{"inputs":[{"internalType":"address","name":"_token","type":"address"}],"stateMutability":"nonpayable","type":"constructor"},{"anonymous":false,"inputs":[{"indexed":true,"internalType":"address","name":"sender","type":"address"},{"indexed":false,"internalType":"uint256","name":"hbarIn","type":"uint256"},{"indexed":false,"internalType":"uint256","name":"tokenIn","type":"uint256"},{"indexed":false,"internalType":"uint256","name":"hbarOut","type":"uint256"},{"indexed":false,"internalType":"uint256","name":"tokenOut","type":"uint256"}],"name":"Swap","type":"event"},{"inputs":[],"name":"BONDING_CURVE_TARGET","outputs":[{"internalType":"uint256","name":"","type":"uint256"}],"stateMutability":"view","type":"function"},{"inputs":[],"name":"FEE_RATE","outputs":[{"internalType":"uint256","name":"","type":"uint256"}],"stateMutability":"view","type":"function"},{"inputs":[],"name":"FEE_RECEIVER","outputs":[{"internalType":"address","name":"","type":"address"}],"stateMutability":"view","type":"function"},{"inputs":[],"name":"MAX_LAUNCH_BUY","outputs":[{"internalType":"uint256","name":"","type":"uint256"}],"stateMutability":"view","type":"function"},{"inputs":[{"internalType":"uint256","name":"minTokensOut","type":"uint256"},{"internalType":"address","name":"receiver","type":"address"},{"internalType":"address payable","name":"referrer","type":"address"}],"name":"buyTokens","outputs":[],"stateMutability":"payable","type":"function"},{"inputs":[],"name":"factoryAddress","outputs":[{"internalType":"address","name":"","type":"address"}],"stateMutability":"view","type":"function"},{"inputs":[],"name":"reserveHbar","outputs":[{"internalType":"uint256","name":"","type":"uint256"}],"stateMutability":"view","type":"function"},{"inputs":[],"name":"reserveToken","outputs":[{"internalType":"uint256","name":"","type":"uint256"}],"stateMutability":"view","type":"function"},{"inputs":[{"internalType":"uint256","name":"tokensIn","type":"uint256"},{"internalType":"uint256","name":"minHbarOut","type":"uint256"},{"internalType":"address payable","name":"referrer","type":"address"}],"name":"sellTokens","outputs":[],"stateMutability":"nonpayable","type":"function"},{"inputs":[],"name":"sync","outputs":[],"stateMutability":"nonpayable","type":"function"},{"inputs":[],"name":"tokenAddress","outputs":[{"internalType":"address","name":"","type":"address"}],"stateMutability":"view","type":"function"},{"stateMutability":"payable","type":"receive"}],"evm":{"bytecode":{"linkReferences":{},"object":"608060405234801561001057600080fd5b50604051610c78380380610c7883398101604081905261002f91610196565b600080546001600160a01b0383166001600160a01b031991821617825560018054909116331781556040805182815280820190915290602080830190803683370190505090508181600081518110610089576100896101c6565b6001600160a01b039092166020928302919091019091015260405160009061016790632e63879b60e01b906100c490309086906024016101dc565b60408051601f198184030181529181526020820180516001600160e01b03166001600160e01b03199094169390931790925290516101029190610238565b6000604051808303816000865af19150503d806000811461013f576040519150601f19603f3d011682016040523d82523d6000602084013e610144565b606091505b505090508061018e5760405162461bcd60e51b8152602060048201526012602482015271105cdcdbd8da585d1a5bdb8819985a5b195960721b604482015260640160405180910390fd5b505050610267565b6000602082840312156101a857600080fd5b81516001600160a01b03811681146101bf57600080fd5b9392505050565b634e487b7160e01b600052603260045260246000fd5b6001600160a01b038381168252604060208084018290528451918401829052600092858201929091906060860190855b8181101561022a57855185168352948301949183019160010161020c565b509098975050505050505050565b6000825160005b81811015610259576020818601810151858301520161023f565b506000920191825250919050565b610a02806102766000396000f3fe6080604052600436106100a05760003560e01c8063ba12d50511610064578063ba12d5051461015f578063c41596d31461017b578063d3e78e4d14610191578063ef569f9a146101a6578063f4325d67146101c6578063fff6cae9146101dc57600080fd5b806305848998146100ac5780632d11c58a146100dd578063966dae0e146100f25780639d76ea581461012a578063adc42f291461014a57600080fd5b366100a757005b600080fd5b3480156100b857600080fd5b506100ca69152d02c7e14af680000081565b6040519081526020015b60405180910390f35b3480156100e957600080fd5b506100ca600181565b3480156100fe57600080fd5b50600154610112906001600160a01b031681565b6040516001600160a01b0390911681526020016100d4565b34801561013657600080fd5b50600054610112906001600160a01b031681565b61015d61015836600461089f565b6101f1565b005b34801561016b57600080fd5b506100ca6729a2241af62c000081565b34801561018757600080fd5b506100ca60025481565b34801561019d57600080fd5b50610112600081565b3480156101b257600080fd5b5061015d6101c13660046108e1565b610547565b3480156101d257600080fd5b506100ca60035481565b3480156101e857600080fd5b5061015d610812565b600034116102375760405162461bcd60e51b815260206004820152600e60248201526d26bab9ba1039b2b73210242120a960911b60448201526064015b60405180910390fd5b69152d02c7e14af680000060025410156102b9576729a2241af62c00003411156102b95760405162461bcd60e51b815260206004820152602d60248201527f45786365656473206d617820627579206c696d6974206f66203320484241522060448201526c0c8eae4d2dcce40d8c2eadcc6d609b1b606482015260840161022e565b34600060646102c9600184610925565b6102d39190610942565b905060006102e18284610964565b90506000816002546102f39190610977565b826003546103019190610925565b61030b9190610942565b90508681101561035d5760405162461bcd60e51b815260206004820152601b60248201527f536c69707061676520746f6c6572616e63652065786365656465640000000000604482015260640161022e565b60006001600160a01b038616156103955761271061037c866014610925565b6103869190610942565b90506103928185610964565b93505b84600260008282546103a79190610977565b9250508190555081600360008282546103c09190610964565b909155505083158015906103d2575060005b1561041d5760405160009085156108fc0290869083818181858288f19350505050158015610404573d6000803e3d6000fd5b5083600260008282546104179190610964565b90915550505b8015610472576040516001600160a01b0387169082156108fc029083906000818181858888f19350505050158015610459573d6000803e3d6000fd5b50806002600082825461046c9190610964565b90915550505b60005460405163a9059cbb60e01b81526001600160a01b038981166004830152602482018590529091169063a9059cbb906044016020604051808303816000875af11580156104c5573d6000803e3d6000fd5b505050506040513d601f19601f820116820180604052508101906104e9919061098a565b5060408051868152600060208201819052818301526060810184905290516001600160a01b038916917f49926bbebe8474393f434dfa4f78694c0923efa07d19f2284518bfabd06eb737919081900360800190a25050505050505050565b6000831161058a5760405162461bcd60e51b815260206004820152601060248201526f4d7573742073656e6420746f6b656e7360801b604482015260640161022e565b60008360035461059a9190610977565b846002546105a89190610925565b6105b29190610942565b9050600060646105c3600184610925565b6105cd9190610942565b905060006105db8284610964565b90508481101561062d5760405162461bcd60e51b815260206004820152601b60248201527f536c69707061676520746f6c6572616e63652065786365656465640000000000604482015260640161022e565b60006001600160a01b038516156106655761271061064c856014610925565b6106569190610942565b90506106628184610964565b92505b6000546040516323b872dd60e01b8152336004820152306024820152604481018990526001600160a01b03909116906323b872dd906064016020604051808303816000875af11580156106bc573d6000803e3d6000fd5b505050506040513d601f19601f820116820180604052508101906106e0919061098a565b5086600360008282546106f39190610977565b92505081905550836002600082825461070c9190610964565b9091555050604051339083156108fc029084906000818181858888f1935050505015801561073e573d6000803e3d6000fd5b5060008311801561074d575060005b156107815760405160009084156108fc0290859083818181858288f1935050505015801561077f573d6000803e3d6000fd5b505b80156107bf576040516001600160a01b0386169082156108fc029083906000818181858888f193505050501580156107bd573d6000803e3d6000fd5b505b604080516000808252602082018a90528183018590526060820152905133917f49926bbebe8474393f434dfa4f78694c0923efa07d19f2284518bfabd06eb737919081900360800190a250505050505050565b476002556000546040516370a0823160e01b81523060048201526001600160a01b03909116906370a0823190602401602060405180830381865afa15801561085e573d6000803e3d6000fd5b505050506040513d601f19601f8201168201806040525081019061088291906109b3565b600355565b6001600160a01b038116811461089c57600080fd5b50565b6000806000606084860312156108b457600080fd5b8335925060208401356108c681610887565b915060408401356108d681610887565b809150509250925092565b6000806000606084860312156108f657600080fd5b833592506020840135915060408401356108d681610887565b634e487b7160e01b600052601160045260246000fd5b808202811582820484141761093c5761093c61090f565b92915050565b60008261095f57634e487b7160e01b600052601260045260246000fd5b500490565b8181038181111561093c5761093c61090f565b8082018082111561093c5761093c61090f565b60006020828403121561099c57600080fd5b815180151581146109ac57600080fd5b9392505050565b6000602082840312156109c557600080fd5b505191905056fea264697066735822122089baacbd1a5839c9bd3dc7bac1ea9d36c1855ed310fe6c37aad67f8eb3b7f55a64736f6c63430008140033","opcodes":"PUSH1 0x80 PUSH1 0x40 MSTORE CALLVALUE DUP1 ISZERO PUSH2 0x10 JUMPI PUSH1 0x0 DUP1 REVERT JUMPDEST POP PUSH1 0x40 MLOAD PUSH2 0xC78 CODESIZE SUB DUP1 PUSH2 0xC78 DUP4 CODECOPY DUP2 ADD PUSH1 0x40 DUP2 SWAP1 MSTORE PUSH2 0x2F SWAP2 PUSH2 0x196 JUMP JUMPDEST PUSH1 0x0 DUP1 SLOAD PUSH1 0x1 PUSH1 0x1 PUSH1 0xA0 SHL SUB DUP4 AND PUSH1 0x1 PUSH1 0x1 PUSH1 0xA0 SHL SUB NOT SWAP2 DUP3 AND OR DUP3 SSTORE PUSH1 0x1 DUP1 SLOAD SWAP1 SWAP2 AND CALLER OR DUP2 SSTORE PUSH1 0x40 DUP1 MLOAD DUP3 DUP2 MSTORE DUP1 DUP3 ADD SWAP1 SWAP2 MSTORE SWAP1 PUSH1 0x20 DUP1 DUP4 ADD SWAP1 DUP1 CALLDATASIZE DUP4 CALLDATACOPY ADD SWAP1 POP POP SWAP1 POP DUP2 DUP2 PUSH1 0x0 DUP2 MLOAD DUP2 LT PUSH2 0x89 JUMPI PUSH2 0x89 PUSH2 0x1C6 JUMP JUMPDEST PUSH1 0x1 PUSH1 0x1 PUSH1 0xA0 SHL SUB SWAP1 SWAP3 AND PUSH1 0x20 SWAP3 DUP4 MUL SWAP2 SWAP1 SWAP2 ADD SWAP1 SWAP2 ADD MSTORE PUSH1 0x40 MLOAD PUSH1 0x0 SWAP1 PUSH2 0x167 SWAP1 PUSH4 0x2E63879B PUSH1 0xE0 SHL SWAP1 PUSH2 0xC4 SWAP1 ADDRESS SWAP1 DUP7 SWAP1 PUSH1 0x24 ADD PUSH2 0x1DC JUMP JUMPDEST PUSH1 0x40 DUP1 MLOAD PUSH1 0x1F NOT DUP2 DUP5 SUB ADD DUP2 MSTORE SWAP2 DUP2 MSTORE PUSH1 0x20 DUP3 ADD DUP1 MLOAD PUSH1 0x1 PUSH1 0x1 PUSH1 0xE0 SHL SUB AND PUSH1 0x1 PUSH1 0x1 PUSH1 0xE0 SHL SUB NOT SWAP1 SWAP5 AND SWAP4 SWAP1 SWAP4 OR SWAP1 SWAP3 MSTORE SWAP1 MLOAD PUSH2 0x102 SWAP2 SWAP1 PUSH2 0x238 JUMP JUMPDEST PUSH1 0x0 PUSH1 0x40 MLOAD DUP1 DUP4 SUB DUP2 PUSH1 0x0 DUP7 GAS CALL SWAP2 POP POP RETURNDATASIZE DUP1 PUSH1 0x0 DUP2 EQ PUSH2 0x13F JUMPI PUSH1 0x40 MLOAD SWAP2 POP PUSH1 0x1F NOT PUSH1 0x3F RETURNDATASIZE ADD AND DUP3 ADD PUSH1 0x40 MSTORE RETURNDATASIZE DUP3 MSTORE RETURNDATASIZE PUSH1 0x0 PUSH1 0x20 DUP5 ADD RETURNDATACOPY PUSH2 0x144 JUMP JUMPDEST PUSH1 0x60 SWAP2 POP JUMPDEST POP POP SWAP1 POP DUP1 PUSH2 0x18E JUMPI PUSH1 0x40 MLOAD PUSH3 0x461BCD PUSH1 0xE5 SHL DUP2 MSTORE PUSH1 0x20 PUSH1 0x4 DUP3 ADD MSTORE PUSH1 0x12 PUSH1 0x24 DUP3 ADD MSTORE PUSH18 0x105CDCDBD8DA585D1A5BDB8819985A5B1959 PUSH1 0x72 SHL PUSH1 0x44 DUP3 ADD MSTORE PUSH1 0x64 ADD PUSH1 0x40 MLOAD DUP1 SWAP2 SUB SWAP1 REVERT JUMPDEST POP POP POP PUSH2 0x267 JUMP JUMPDEST PUSH1 0x0 PUSH1 0x20 DUP3 DUP5 SUB SLT ISZERO PUSH2 0x1A8 JUMPI PUSH1 0x0 DUP1 REVERT JUMPDEST DUP2 MLOAD PUSH1 0x1 PUSH1 0x1 PUSH1 0xA0 SHL SUB DUP2 AND DUP2 EQ PUSH2 0x1BF JUMPI PUSH1 0x0 DUP1 REVERT JUMPDEST SWAP4 SWAP3 POP POP POP JUMP JUMPDEST PUSH4 0x4E487B71 PUSH1 0xE0 SHL PUSH1 0x0 MSTORE PUSH1 0x32 PUSH1 0x4 MSTORE PUSH1 0x24 PUSH1 0x0 REVERT JUMPDEST PUSH1 0x1 PUSH1 0x1 PUSH1 0xA0 SHL SUB DUP4 DUP2 AND DUP3 MSTORE PUSH1 0x40 PUSH1 0x20 DUP1 DUP5 ADD DUP3 SWAP1 MSTORE DUP5 MLOAD SWAP2 DUP5 ADD DUP3 SWAP1 MSTORE PUSH1 0x0 SWAP3 DUP6 DUP3 ADD SWAP3 SWAP1 SWAP2 SWAP1 PUSH1 0x60 DUP7 ADD SWAP1 DUP6 JUMPDEST DUP2 DUP2 LT ISZERO PUSH2 0x22A JUMPI DUP6 MLOAD DUP6 AND DUP4 MSTORE SWAP5 DUP4 ADD SWAP5 SWAP2 DUP4 ADD SWAP2 PUSH1 0x1 ADD PUSH2 0x20C JUMP JUMPDEST POP SWAP1 SWAP9 SWAP8 POP POP POP POP POP POP POP POP JUMP JUMPDEST PUSH1 0x0 DUP3 MLOAD PUSH1 0x0 JUMPDEST DUP2 DUP2 LT ISZERO PUSH2 0x259 JUMPI PUSH1 0x20 DUP2 DUP7 ADD DUP2 ADD MLOAD DUP6 DUP4 ADD MSTORE ADD PUSH2 0x23F JUMP JUMPDEST POP PUSH1 0x0 SWAP3 ADD SWAP2 DUP3 MSTORE POP SWAP2 SWAP1 POP JUMP JUMPDEST PUSH2 0xA02 DUP1 PUSH2 0x276 PUSH1 0x0 CODECOPY PUSH1 0x0 RETURN INVALID PUSH1 0x80 PUSH1 0x40 MSTORE PUSH1 0x4 CALLDATASIZE LT PUSH2 0xA0 JUMPI PUSH1 0x0 CALLDATALOAD PUSH1 0xE0 SHR DUP1 PUSH4 0xBA12D505 GT PUSH2 0x64 JUMPI DUP1 PUSH4 0xBA12D505 EQ PUSH2 0x15F JUMPI DUP1 PUSH4 0xC41596D3 EQ PUSH2 0x17B JUMPI DUP1 PUSH4 0xD3E78E4D EQ PUSH2 0x191 JUMPI DUP1 PUSH4 0xEF569F9A EQ PUSH2 0x1A6 JUMPI DUP1 PUSH4 0xF4325D67 EQ PUSH2 0x1C6 JUMPI DUP1 PUSH4 0xFFF6CAE9 EQ PUSH2 0x1DC JUMPI PUSH1 0x0 DUP1 REVERT JUMPDEST DUP1 PUSH4 0x5848998 EQ PUSH2 0xAC JUMPI DUP1 PUSH4 0x2D11C58A EQ PUSH2 0xDD JUMPI DUP1 PUSH4 0x966DAE0E EQ PUSH2 0xF2 JUMPI DUP1 PUSH4 0x9D76EA58 EQ PUSH2 0x12A JUMPI DUP1 PUSH4 0xADC42F29 EQ PUSH2 0x14A JUMPI PUSH1 0x0 DUP1 REVERT JUMPDEST CALLDATASIZE PUSH2 0xA7 JUMPI STOP JUMPDEST PUSH1 0x0 DUP1 REVERT JUMPDEST CALLVALUE DUP1 ISZERO PUSH2 0xB8 JUMPI PUSH1 0x0 DUP1 REVERT JUMPDEST POP PUSH2 0xCA PUSH10 0x152D02C7E14AF6800000 DUP2 JUMP JUMPDEST PUSH1 0x40 MLOAD SWAP1 DUP2 MSTORE PUSH1 0x20 ADD JUMPDEST PUSH1 0x40 MLOAD DUP1 SWAP2 SUB SWAP1 RETURN JUMPDEST CALLVALUE DUP1 ISZERO PUSH2 0xE9 JUMPI PUSH1 0x0 DUP1 REVERT JUMPDEST POP PUSH2 0xCA PUSH1 0x1 DUP2 JUMP JUMPDEST CALLVALUE DUP1 ISZERO PUSH2 0xFE JUMPI PUSH1 0x0 DUP1 REVERT JUMPDEST POP PUSH1 0x1 SLOAD PUSH2 0x112 SWAP1 PUSH1 0x1 PUSH1 0x1 PUSH1 0xA0 SHL SUB AND DUP2 JUMP JUMPDEST PUSH1 0x40 MLOAD PUSH1 0x1 PUSH1 0x1 PUSH1 0xA0 SHL SUB SWAP1 SWAP2 AND DUP2 MSTORE PUSH1 0x20 ADD PUSH2 0xD4 JUMP JUMPDEST CALLVALUE DUP1 ISZERO PUSH2 0x136 JUMPI PUSH1 0x0 DUP1 REVERT JUMPDEST POP PUSH1 0x0 SLOAD PUSH2 0x112 SWAP1 PUSH1 0x1 PUSH1 0x1 PUSH1 0xA0 SHL SUB AND DUP2 JUMP JUMPDEST PUSH2 0x15D PUSH2 0x158 CALLDATASIZE PUSH1 0x4 PUSH2 0x89F JUMP JUMPDEST PUSH2 0x1F1 JUMP JUMPDEST STOP JUMPDEST CALLVALUE DUP1 ISZERO PUSH2 0x16B JUMPI PUSH1 0x0 DUP1 REVERT JUMPDEST POP PUSH2 0xCA PUSH8 0x29A2241AF62C0000 DUP2 JUMP JUMPDEST CALLVALUE DUP1 ISZERO PUSH2 0x187 JUMPI PUSH1 0x0 DUP1 REVERT JUMPDEST POP PUSH2 0xCA PUSH1 0x2 SLOAD DUP2 JUMP JUMPDEST CALLVALUE DUP1 ISZERO PUSH2 0x19D JUMPI PUSH1 0x0 DUP1 REVERT JUMPDEST POP PUSH2 0x112 PUSH1 0x0 DUP2 JUMP JUMPDEST CALLVALUE DUP1 ISZERO PUSH2 0x1B2 JUMPI PUSH1 0x0 DUP1 REVERT JUMPDEST POP PUSH2 0x15D PUSH2 0x1C1 CALLDATASIZE PUSH1 0x4 PUSH2 0x8E1 JUMP JUMPDEST PUSH2 0x547 JUMP JUMPDEST CALLVALUE DUP1 ISZERO PUSH2 0x1D2 JUMPI PUSH1 0x0 DUP1 REVERT JUMPDEST POP PUSH2 0xCA PUSH1 0x3 SLOAD DUP2 JUMP JUMPDEST CALLVALUE DUP1 ISZERO PUSH2 0x1E8 JUMPI PUSH1 0x0 DUP1 REVERT JUMPDEST POP PUSH2 0x15D PUSH2 0x812 JUMP JUMPDEST PUSH1 0x0 CALLVALUE GT PUSH2 0x237 JUMPI PUSH1 0x40 MLOAD PUSH3 0x461BCD PUSH1 0xE5 SHL DUP2 MSTORE PUSH1 0x20 PUSH1 0x4 DUP3 ADD MSTORE PUSH1 0xE PUSH1 0x24 DUP3 ADD MSTORE PUSH14 0x26BAB9BA1039B2B73210242120A9 PUSH1 0x91 SHL PUSH1 0x44 DUP3 ADD MSTORE PUSH1 0x64 ADD JUMPDEST PUSH1 0x40 MLOAD DUP1 SWAP2 SUB SWAP1 REVERT JUMPDEST PUSH10 0x152D02C7E14AF6800000 PUSH1 0x2 SLOAD LT ISZERO PUSH2 0x2B9 JUMPI PUSH8 0x29A2241AF62C0000 CALLVALUE GT ISZERO PUSH2 0x2B9 JUMPI PUSH1 0x40 MLOAD PUSH3 0x461BCD PUSH1 0xE5 SHL DUP2 MSTORE PUSH1 0x20 PUSH1 0x4 DUP3 ADD MSTORE PUSH1 0x2D PUSH1 0x24 DUP3 ADD MSTORE PUSH32 0x45786365656473206D617820627579206C696D6974206F662033204842415220 PUSH1 0x44 DUP3 ADD MSTORE PUSH13 0xC8EAE4D2DCCE40D8C2EADCC6D PUSH1 0x9B SHL PUSH1 0x64 DUP3 ADD MSTORE PUSH1 0x84 ADD PUSH2 0x22E JUMP JUMPDEST CALLVALUE PUSH1 0x0 PUSH1 0x64 PUSH2 0x2C9 PUSH1 0x1 DUP5 PUSH2 0x925 JUMP JUMPDEST PUSH2 0x2D3 SWAP2 SWAP1 PUSH2 0x942 JUMP JUMPDEST SWAP1 POP PUSH1 0x0 PUSH2 0x2E1 DUP3 DUP5 PUSH2 0x964 JUMP JUMPDEST SWAP1 POP PUSH1 0x0 DUP2 PUSH1 0x2 SLOAD PUSH2 0x2F3 SWAP2 SWAP1 PUSH2 0x977 JUMP JUMPDEST DUP3 PUSH1 0x3 SLOAD PUSH2 0x301 SWAP2 SWAP1 PUSH2 0x925 JUMP JUMPDEST PUSH2 0x30B SWAP2 SWAP1 PUSH2 0x942 JUMP JUMPDEST SWAP1 POP DUP7 DUP2 LT ISZERO PUSH2 0x35D JUMPI PUSH1 0x40 MLOAD PUSH3 0x461BCD PUSH1 0xE5 SHL DUP2 MSTORE PUSH1 0x20 PUSH1 0x4 DUP3 ADD MSTORE PUSH1 0x1B PUSH1 0x24 DUP3 ADD MSTORE PUSH32 0x536C69707061676520746F6C6572616E63652065786365656465640000000000 PUSH1 0x44 DUP3 ADD MSTORE PUSH1 0x64 ADD PUSH2 0x22E JUMP JUMPDEST PUSH1 0x0 PUSH1 0x1 PUSH1 0x1 PUSH1 0xA0 SHL SUB DUP7 AND ISZERO PUSH2 0x395 JUMPI PUSH2 0x2710 PUSH2 0x37C DUP7 PUSH1 0x14 PUSH2 0x925 JUMP JUMPDEST PUSH2 0x386 SWAP2 SWAP1 PUSH2 0x942 JUMP JUMPDEST SWAP1 POP PUSH2 0x392 DUP2 DUP6 PUSH2 0x964 JUMP JUMPDEST SWAP4 POP JUMPDEST DUP5 PUSH1 0x2 PUSH1 0x0 DUP3 DUP3 SLOAD PUSH2 0x3A7 SWAP2 SWAP1 PUSH2 0x977 JUMP JUMPDEST SWAP3 POP POP DUP2 SWAP1 SSTORE POP DUP2 PUSH1 0x3 PUSH1 0x0 DUP3 DUP3 SLOAD PUSH2 0x3C0 SWAP2 SWAP1 PUSH2 0x964 JUMP JUMPDEST SWAP1 SWAP2 SSTORE POP POP DUP4 ISZERO DUP1 ISZERO SWAP1 PUSH2 0x3D2 JUMPI POP PUSH1 0x0 JUMPDEST ISZERO PUSH2 0x41D JUMPI PUSH1 0x40 MLOAD PUSH1 0x0 SWAP1 DUP6 ISZERO PUSH2 0x8FC MUL SWAP1 DUP7 SWAP1 DUP4 DUP2 DUP2 DUP2 DUP6 DUP3 DUP9 CALL SWAP4 POP POP POP POP ISZERO DUP1 ISZERO PUSH2 0x404 JUMPI RETURNDATASIZE PUSH1 0x0 DUP1 RETURNDATACOPY RETURNDATASIZE PUSH1 0x0 REVERT JUMPDEST POP DUP4 PUSH1 0x2 PUSH1 0x0 DUP3 DUP3 SLOAD PUSH2 0x417 SWAP2 SWAP1 PUSH2 0x964 JUMP JUMPDEST SWAP1 SWAP2 SSTORE POP POP JUMPDEST DUP1 ISZERO PUSH2 0x472 JUMPI PUSH1 0x40 MLOAD PUSH1 0x1 PUSH1 0x1 PUSH1 0xA0 SHL SUB DUP8 AND SWAP1 DUP3 ISZERO PUSH2 0x8FC MUL SWAP1 DUP4 SWAP1 PUSH1 0x0 DUP2 DUP2 DUP2 DUP6 DUP9 DUP9 CALL SWAP4 POP POP POP POP ISZERO DUP1 ISZERO PUSH2 0x459 JUMPI RETURNDATASIZE PUSH1 0x0 DUP1 RETURNDATACOPY RETURNDATASIZE PUSH1 0x0 REVERT JUMPDEST POP DUP1 PUSH1 0x2 PUSH1 0x0 DUP3 DUP3 SLOAD PUSH2 0x46C SWAP2 SWAP1 PUSH2 0x964 JUMP JUMPDEST SWAP1 SWAP2 SSTORE POP POP JUMPDEST PUSH1 0x0 SLOAD PUSH1 0x40 MLOAD PUSH4 0xA9059CBB PUSH1 0xE0 SHL DUP2 MSTORE PUSH1 0x1 PUSH1 0x1 PUSH1 0xA0 SHL SUB DUP10 DUP2 AND PUSH1 0x4 DUP4 ADD MSTORE PUSH1 0x24 DUP3 ADD DUP6 SWAP1 MSTORE SWAP1 SWAP2 AND SWAP1 PUSH4 0xA9059CBB SWAP1 PUSH1 0x44 ADD PUSH1 0x20 PUSH1 0x40 MLOAD DUP1 DUP4 SUB DUP2 PUSH1 0x0 DUP8 GAS CALL ISZERO DUP1 ISZERO PUSH2 0x4C5 JUMPI RETURNDATASIZE PUSH1 0x0 DUP1 RETURNDATACOPY RETURNDATASIZE PUSH1 0x0 REVERT JUMPDEST POP POP POP POP PUSH1 0x40 MLOAD RETURNDATASIZE PUSH1 0x1F NOT PUSH1 0x1F DUP3 ADD AND DUP3 ADD DUP1 PUSH1 0x40 MSTORE POP DUP2 ADD SWAP1 PUSH2 0x4E9 SWAP2 SWAP1 PUSH2 0x98A JUMP JUMPDEST POP PUSH1 0x40 DUP1 MLOAD DUP7 DUP2 MSTORE PUSH1 0x0 PUSH1 0x20 DUP3 ADD DUP2 SWAP1 MSTORE DUP2 DUP4 ADD MSTORE PUSH1 0x60 DUP2 ADD DUP5 SWAP1 MSTORE SWAP1 MLOAD PUSH1 0x1 PUSH1 0x1 PUSH1 0xA0 SHL SUB DUP10 AND SWAP2 PUSH32 0x49926BBEBE8474393F434DFA4F78694C0923EFA07D19F2284518BFABD06EB737 SWAP2 SWAP1 DUP2 SWAP1 SUB PUSH1 0x80 ADD SWAP1 LOG2 POP POP POP POP POP POP POP POP JUMP JUMPDEST PUSH1 0x0 DUP4 GT PUSH2 0x58A JUMPI PUSH1 0x40 MLOAD PUSH3 0x461BCD PUSH1 0xE5 SHL DUP2 MSTORE PUSH1 0x20 PUSH1 0x4 DUP3 ADD MSTORE PUSH1 0x10 PUSH1 0x24 DUP3 ADD MSTORE PUSH16 0x4D7573742073656E6420746F6B656E73 PUSH1 0x80 SHL PUSH1 0x44 DUP3 ADD MSTORE PUSH1 0x64 ADD PUSH2 0x22E JUMP JUMPDEST PUSH1 0x0 DUP4 PUSH1 0x3 SLOAD PUSH2 0x59A SWAP2 SWAP1 PUSH2 0x977 JUMP JUMPDEST DUP5 PUSH1 0x2 SLOAD PUSH2 0x5A8 SWAP2 SWAP1 PUSH2 0x925 JUMP JUMPDEST PUSH2 0x5B2 SWAP2 SWAP1 PUSH2 0x942 JUMP JUMPDEST SWAP1 POP PUSH1 0x0 PUSH1 0x64 PUSH2 0x5C3 PUSH1 0x1 DUP5 PUSH2 0x925 JUMP JUMPDEST PUSH2 0x5CD SWAP2 SWAP1 PUSH2 0x942 JUMP JUMPDEST SWAP1 POP PUSH1 0x0 PUSH2 0x5DB DUP3 DUP5 PUSH2 0x964 JUMP JUMPDEST SWAP1 POP DUP5 DUP2 LT ISZERO PUSH2 0x62D JUMPI PUSH1 0x40 MLOAD PUSH3 0x461BCD PUSH1 0xE5 SHL DUP2 MSTORE PUSH1 0x20 PUSH1 0x4 DUP3 ADD MSTORE PUSH1 0x1B PUSH1 0x24 DUP3 ADD MSTORE PUSH32 0x536C69707061676520746F6C6572616E63652065786365656465640000000000 PUSH1 0x44 DUP3 ADD MSTORE PUSH1 0x64 ADD PUSH2 0x22E JUMP JUMPDEST PUSH1 0x0 PUSH1 0x1 PUSH1 0x1 PUSH1 0xA0 SHL SUB DUP6 AND ISZERO PUSH2 0x665 JUMPI PUSH2 0x2710 PUSH2 0x64C DUP6 PUSH1 0x14 PUSH2 0x925 JUMP JUMPDEST PUSH2 0x656 SWAP2 SWAP1 PUSH2 0x942 JUMP JUMPDEST SWAP1 POP PUSH2 0x662 DUP2 DUP5 PUSH2 0x964 JUMP JUMPDEST SWAP3 POP JUMPDEST PUSH1 0x0 SLOAD PUSH1 0x40 MLOAD PUSH4 0x23B872DD PUSH1 0xE0 SHL DUP2 MSTORE CALLER PUSH1 0x4 DUP3 ADD MSTORE ADDRESS PUSH1 0x24 DUP3 ADD MSTORE PUSH1 0x44 DUP2 ADD DUP10 SWAP1 MSTORE PUSH1 0x1 PUSH1 0x1 PUSH1 0xA0 SHL SUB SWAP1 SWAP2 AND SWAP1 PUSH4 0x23B872DD SWAP1 PUSH1 0x64 ADD PUSH1 0x20 PUSH1 0x40 MLOAD DUP1 DUP4 SUB DUP2 PUSH1 0x0 DUP8 GAS CALL ISZERO DUP1 ISZERO PUSH2 0x6BC JUMPI RETURNDATASIZE PUSH1 0x0 DUP1 RETURNDATACOPY RETURNDATASIZE PUSH1 0x0 REVERT JUMPDEST POP POP POP POP PUSH1 0x40 MLOAD RETURNDATASIZE PUSH1 0x1F NOT PUSH1 0x1F DUP3 ADD AND DUP3 ADD DUP1 PUSH1 0x40 MSTORE POP DUP2 ADD SWAP1 PUSH2 0x6E0 SWAP2 SWAP1 PUSH2 0x98A JUMP JUMPDEST POP DUP7 PUSH1 0x3 PUSH1 0x0 DUP3 DUP3 SLOAD PUSH2 0x6F3 SWAP2 SWAP1 PUSH2 0x977 JUMP JUMPDEST SWAP3 POP POP DUP2 SWAP1 SSTORE POP DUP4 PUSH1 0x2 PUSH1 0x0 DUP3 DUP3 SLOAD PUSH2 0x70C SWAP2 SWAP1 PUSH2 0x964 JUMP JUMPDEST SWAP1 SWAP2 SSTORE POP POP PUSH1 0x40 MLOAD CALLER SWAP1 DUP4 ISZERO PUSH2 0x8FC MUL SWAP1 DUP5 SWAP1 PUSH1 0x0 DUP2 DUP2 DUP2 DUP6 DUP9 DUP9 CALL SWAP4 POP POP POP POP ISZERO DUP1 ISZERO PUSH2 0x73E JUMPI RETURNDATASIZE PUSH1 0x0 DUP1 RETURNDATACOPY RETURNDATASIZE PUSH1 0x0 REVERT JUMPDEST POP PUSH1 0x0 DUP4 GT DUP1 ISZERO PUSH2 0x74D JUMPI POP PUSH1 0x0 JUMPDEST ISZERO PUSH2 0x781 JUMPI PUSH1 0x40 MLOAD PUSH1 0x0 SWAP1 DUP5 ISZERO PUSH2 0x8FC MUL SWAP1 DUP6 SWAP1 DUP4 DUP2 DUP2 DUP2 DUP6 DUP3 DUP9 CALL SWAP4 POP POP POP POP ISZERO DUP1 ISZERO PUSH2 0x77F JUMPI RETURNDATASIZE PUSH1 0x0 DUP1 RETURNDATACOPY RETURNDATASIZE PUSH1 0x0 REVERT JUMPDEST POP JUMPDEST DUP1 ISZERO PUSH2 0x7BF JUMPI PUSH1 0x40 MLOAD PUSH1 0x1 PUSH1 0x1 PUSH1 0xA0 SHL SUB DUP7 AND SWAP1 DUP3 ISZERO PUSH2 0x8FC MUL SWAP1 DUP4 SWAP1 PUSH1 0x0 DUP2 DUP2 DUP2 DUP6 DUP9 DUP9 CALL SWAP4 POP POP POP POP ISZERO DUP1 ISZERO PUSH2 0x7BD JUMPI RETURNDATASIZE PUSH1 0x0 DUP1 RETURNDATACOPY RETURNDATASIZE PUSH1 0x0 REVERT JUMPDEST POP JUMPDEST PUSH1 0x40 DUP1 MLOAD PUSH1 0x0 DUP1 DUP3 MSTORE PUSH1 0x20 DUP3 ADD DUP11 SWAP1 MSTORE DUP2 DUP4 ADD DUP6 SWAP1 MSTORE PUSH1 0x60 DUP3 ADD MSTORE SWAP1 MLOAD CALLER SWAP2 PUSH32 0x49926BBEBE8474393F434DFA4F78694C0923EFA07D19F2284518BFABD06EB737 SWAP2 SWAP1 DUP2 SWAP1 SUB PUSH1 0x80 ADD SWAP1 LOG2 POP POP POP POP POP POP POP JUMP JUMPDEST SELFBALANCE PUSH1 0x2 SSTORE PUSH1 0x0 SLOAD PUSH1 0x40 MLOAD PUSH4 0x70A08231 PUSH1 0xE0 SHL DUP2 MSTORE ADDRESS PUSH1 0x4 DUP3 ADD MSTORE PUSH1 0x1 PUSH1 0x1 PUSH1 0xA0 SHL SUB SWAP1 SWAP2 AND SWAP1 PUSH4 0x70A08231 SWAP1 PUSH1 0x24 ADD PUSH1 0x20 PUSH1 0x40 MLOAD DUP1 DUP4 SUB DUP2 DUP7 GAS STATICCALL ISZERO DUP1 ISZERO PUSH2 0x85E JUMPI RETURNDATASIZE PUSH1 0x0 DUP1 RETURNDATACOPY RETURNDATASIZE PUSH1 0x0 REVERT JUMPDEST POP POP POP POP PUSH1 0x40 MLOAD RETURNDATASIZE PUSH1 0x1F NOT PUSH1 0x1F DUP3 ADD AND DUP3 ADD DUP1 PUSH1 0x40 MSTORE POP DUP2 ADD SWAP1 PUSH2 0x882 SWAP2 SWAP1 PUSH2 0x9B3 JUMP JUMPDEST PUSH1 0x3 SSTORE JUMP JUMPDEST PUSH1 0x1 PUSH1 0x1 PUSH1 0xA0 SHL SUB DUP2 AND DUP2 EQ PUSH2 0x89C JUMPI PUSH1 0x0 DUP1 REVERT JUMPDEST POP JUMP JUMPDEST PUSH1 0x0 DUP1 PUSH1 0x0 PUSH1 0x60 DUP5 DUP7 SUB SLT ISZERO PUSH2 0x8B4 JUMPI PUSH1 0x0 DUP1 REVERT JUMPDEST DUP4 CALLDATALOAD SWAP3 POP PUSH1 0x20 DUP5 ADD CALLDATALOAD PUSH2 0x8C6 DUP2 PUSH2 0x887 JUMP JUMPDEST SWAP2 POP PUSH1 0x40 DUP5 ADD CALLDATALOAD PUSH2 0x8D6 DUP2 PUSH2 0x887 JUMP JUMPDEST DUP1 SWAP2 POP POP SWAP3 POP SWAP3 POP SWAP3 JUMP JUMPDEST PUSH1 0x0 DUP1 PUSH1 0x0 PUSH1 0x60 DUP5 DUP7 SUB SLT ISZERO PUSH2 0x8F6 JUMPI PUSH1 0x0 DUP1 REVERT JUMPDEST DUP4 CALLDATALOAD SWAP3 POP PUSH1 0x20 DUP5 ADD CALLDATALOAD SWAP2 POP PUSH1 0x40 DUP5 ADD CALLDATALOAD PUSH2 0x8D6 DUP2 PUSH2 0x887 JUMP JUMPDEST PUSH4 0x4E487B71 PUSH1 0xE0 SHL PUSH1 0x0 MSTORE PUSH1 0x11 PUSH1 0x4 MSTORE PUSH1 0x24 PUSH1 0x0 REVERT JUMPDEST DUP1 DUP3 MUL DUP2 ISZERO DUP3 DUP3 DIV DUP5 EQ OR PUSH2 0x93C JUMPI PUSH2 0x93C PUSH2 0x90F JUMP JUMPDEST SWAP3 SWAP2 POP POP JUMP JUMPDEST PUSH1 0x0 DUP3 PUSH2 0x95F JUMPI PUSH4 0x4E487B71 PUSH1 0xE0 SHL PUSH1 0x0 MSTORE PUSH1 0x12 PUSH1 0x4 MSTORE PUSH1 0x24 PUSH1 0x0 REVERT JUMPDEST POP DIV SWAP1 JUMP JUMPDEST DUP2 DUP2 SUB DUP2 DUP2 GT ISZERO PUSH2 0x93C JUMPI PUSH2 0x93C PUSH2 0x90F JUMP JUMPDEST DUP1 DUP3 ADD DUP1 DUP3 GT ISZERO PUSH2 0x93C JUMPI PUSH2 0x93C PUSH2 0x90F JUMP JUMPDEST PUSH1 0x0 PUSH1 0x20 DUP3 DUP5 SUB SLT ISZERO PUSH2 0x99C JUMPI PUSH1 0x0 DUP1 REVERT JUMPDEST DUP2 MLOAD DUP1 ISZERO ISZERO DUP2 EQ PUSH2 0x9AC JUMPI PUSH1 0x0 DUP1 REVERT JUMPDEST SWAP4 SWAP3 POP POP POP JUMP JUMPDEST PUSH1 0x0 PUSH1 0x20 DUP3 DUP5 SUB SLT ISZERO PUSH2 0x9C5 JUMPI PUSH1 0x0 DUP1 REVERT JUMPDEST POP MLOAD SWAP2 SWAP1 POP JUMP INVALID LOG2 PUSH5 0x6970667358 0x22 SLT KECCAK256 DUP10 0xBA 0xAC 0xBD BYTE PC CODECOPY 0xC9 0xBD RETURNDATASIZE 0xC7 0xBA 0xC1 0xEA SWAP14 CALLDATASIZE 0xC1 DUP6 0x5E 0xD3 LT INVALID PUSH13 0x37AAD67F8EB3B7F55A64736F6C PUSH4 0x43000814 STOP CALLER "},"methodIdentifiers":{"BONDING_CURVE_TARGET()":"05848998","FEE_RATE()":"2d11c58a","FEE_RECEIVER()":"d3e78e4d","MAX_LAUNCH_BUY()":"ba12d505","buyTokens(uint256,address,address)":"adc42f29","factoryAddress()":"966dae0e","reserveHbar()":"c41596d3","reserveToken()":"f4325d67","sellTokens(uint256,uint256,address)":"ef569f9a","sync()":"fff6cae9","tokenAddress()":"9d76ea58"}}}}}