{"contracts/MemeFactoryV4.sol":{"MemeFactoryV4":{"abi":[{"inputs":[{"internalType":"address","name":"_treasury","type":"address"},{"internalType":"address","name":"_dexAddress","type":"address"}],"stateMutability":"nonpayable","type":"constructor"},{"anonymous":false,"inputs":[{"indexed":true,"internalType":"address","name":"creator","type":"address"},{"indexed":false,"internalType":"address","name":"tokenAddress","type":"address"},{"indexed":false,"internalType":"string","name":"name","type":"string"},{"indexed":false,"internalType":"string","name":"symbol","type":"string"},{"indexed":false,"internalType":"string","name":"imageUrl","type":"string"}],"name":"MemeLaunched","type":"event"},{"inputs":[{"internalType":"string","name":"name","type":"string"},{"internalType":"string","name":"symbol","type":"string"},{"internalType":"uint256","name":"initialSupply","type":"uint256"},{"internalType":"string","name":"imageUrl","type":"string"}],"name":"createMemeToken","outputs":[{"internalType":"address","name":"","type":"address"}],"stateMutability":"payable","type":"function"},{"inputs":[],"name":"dexAddress","outputs":[{"internalType":"address","name":"","type":"address"}],"stateMutability":"view","type":"function"},{"inputs":[],"name":"treasury","outputs":[{"internalType":"address","name":"","type":"address"}],"stateMutability":"view","type":"function"}],"evm":{"bytecode":{"linkReferences":{},"object":"608060405234801561001057600080fd5b5060405161126438038061126483398101604081905261002f9161007c565b600080546001600160a01b039384166001600160a01b031991821617909155600180549290931691161790556100af565b80516001600160a01b038116811461007757600080fd5b919050565b6000806040838503121561008f57600080fd5b61009883610060565b91506100a660208401610060565b90509250929050565b6111a6806100be6000396000f3fe608060405260043610620000385760003560e01c806361d027b3146200003d578063745fba84146200007b578063ae87d76c146200009d575b600080fd5b3480156200004a57600080fd5b506000546200005f906001600160a01b031681565b6040516001600160a01b03909116815260200160405180910390f35b3480156200008857600080fd5b506001546200005f906001600160a01b031681565b6200005f620000ae36600462000323565b60015460008054604051919283928892889288926001600160a01b039182169290911690620000dd906200026a565b620000ed95949392919062000407565b604051809103906000f0801580156200010a573d6000803e3d6000fd5b5060015460405163407431f760e01b81526001600160a01b03808416600483015292935091169063407431f790602401600060405180830381600087803b1580156200015557600080fd5b505af11580156200016a573d6000803e3d6000fd5b50505050336001600160a01b03167fd7cbed4ccc2d30f2567af3bf682d3f2a07e5855c61c27ee2211330951ec4196b82888887604051620001af949392919062000458565b60405180910390a23480156200026057604051600090339083908381818185875af1925050503d806000811462000203576040519150601f19603f3d011682016040523d82523d6000602084013e62000208565b606091505b50509050806200025e5760405162461bcd60e51b815260206004820152601960248201527f484241522042756666657220526566756e64204661696c656400000000000000604482015260640160405180910390fd5b505b5095945050505050565b610cbd80620004b483390190565b634e487b7160e01b600052604160045260246000fd5b600082601f830112620002a057600080fd5b813567ffffffffffffffff80821115620002be57620002be62000278565b604051601f8301601f19908116603f01168101908282118183101715620002e957620002e962000278565b816040528381528660208588010111156200030357600080fd5b836020870160208301376000602085830101528094505050505092915050565b600080600080608085870312156200033a57600080fd5b843567ffffffffffffffff808211156200035357600080fd5b62000361888389016200028e565b955060208701359150808211156200037857600080fd5b62000386888389016200028e565b9450604087013593506060870135915080821115620003a457600080fd5b50620003b3878288016200028e565b91505092959194509250565b6000815180845260005b81811015620003e757602081850181015186830182015201620003c9565b506000602082860101526020601f19601f83011685010191505092915050565b60a0815260006200041c60a0830188620003bf565b8281036020840152620004308188620003bf565b604084019690965250506001600160a01b039283166060820152911660809091015292915050565b6001600160a01b03851681526080602082018190526000906200047e90830186620003bf565b8281036040840152620004928186620003bf565b90508281036060840152620004a88185620003bf565b97965050505050505056fe60806040526002805460ff191660081790553480156200001e57600080fd5b5060405162000cbd38038062000cbd83398101604081905262000041916200021c565b60006200004f868262000344565b5060016200005e858262000344565b50600254620000729060ff16600a62000525565b6200007e90846200053a565b6003819055600090620000949060649062000554565b9050600081600354620000a8919062000577565b6001600160a01b03851660008181526004602052604080822084905551929350909160008051602062000c9d83398151915290620000e99085815260200190565b60405180910390a36001600160a01b03831660008181526004602090815260408083208690555185815260008051602062000c9d833981519152910160405180910390a3505050505050506200058d565b634e487b7160e01b600052604160045260246000fd5b600082601f8301126200016257600080fd5b81516001600160401b03808211156200017f576200017f6200013a565b604051601f8301601f19908116603f01168101908282118183101715620001aa57620001aa6200013a565b81604052838152602092508683858801011115620001c757600080fd5b600091505b83821015620001eb5785820183015181830184015290820190620001cc565b600093810190920192909252949350505050565b80516001600160a01b03811681146200021757600080fd5b919050565b600080600080600060a086880312156200023557600080fd5b85516001600160401b03808211156200024d57600080fd5b6200025b89838a0162000150565b965060208801519150808211156200027257600080fd5b50620002818882890162000150565b945050604086015192506200029960608701620001ff565b9150620002a960808701620001ff565b90509295509295909350565b600181811c90821680620002ca57607f821691505b602082108103620002eb57634e487b7160e01b600052602260045260246000fd5b50919050565b601f8211156200033f57600081815260208120601f850160051c810160208610156200031a5750805b601f850160051c820191505b818110156200033b5782815560010162000326565b5050505b505050565b81516001600160401b038111156200036057620003606200013a565b6200037881620003718454620002b5565b84620002f1565b602080601f831160018114620003b05760008415620003975750858301515b600019600386901b1c1916600185901b1785556200033b565b600085815260208120601f198616915b82811015620003e157888601518255948401946001909101908401620003c0565b5085821015620004005787850151600019600388901b60f8161c191681555b5050505050600190811b01905550565b634e487b7160e01b600052601160045260246000fd5b600181815b80851115620004675781600019048211156200044b576200044b62000410565b808516156200045957918102915b93841c93908002906200042b565b509250929050565b60008262000480575060016200051f565b816200048f575060006200051f565b8160018114620004a85760028114620004b357620004d3565b60019150506200051f565b60ff841115620004c757620004c762000410565b50506001821b6200051f565b5060208310610133831016604e8410600b8410161715620004f8575081810a6200051f565b62000504838362000426565b80600019048211156200051b576200051b62000410565b0290505b92915050565b60006200053383836200046f565b9392505050565b80820281158282048414176200051f576200051f62000410565b6000826200057257634e487b7160e01b600052601260045260246000fd5b500490565b818103818111156200051f576200051f62000410565b610700806200059d6000396000f3fe608060405234801561001057600080fd5b50600436106100935760003560e01c8063313ce56711610066578063313ce5671461010357806370a082311461012257806395d89b4114610142578063a9059cbb1461014a578063dd62ed3e1461015d57600080fd5b806306fdde0314610098578063095ea7b3146100b657806318160ddd146100d957806323b872dd146100f0575b600080fd5b6100a0610188565b6040516100ad919061052f565b60405180910390f35b6100c96100c4366004610599565b610216565b60405190151581526020016100ad565b6100e260035481565b6040519081526020016100ad565b6100c96100fe3660046105c3565b610283565b6002546101109060ff1681565b60405160ff90911681526020016100ad565b6100e26101303660046105ff565b60046020526000908152604090205481565b6100a061043e565b6100c9610158366004610599565b61044b565b6100e261016b366004610621565b600560209081526000928352604080842090915290825290205481565b6000805461019590610654565b80601f01602080910402602001604051908101604052809291908181526020018280546101c190610654565b801561020e5780601f106101e35761010080835404028352916020019161020e565b820191906000526020600020905b8154815290600101906020018083116101f157829003601f168201915b505050505081565b3360008181526005602090815260408083206001600160a01b038716808552925280832085905551919290917f8c5be1e5ebec7d5bd14f71427d1e84f3dd0314c0f7b2291e5b200ac8c7c3b925906102719086815260200190565b60405180910390a35060015b92915050565b6001600160a01b0383166000908152600460205260408120548211156102e75760405162461bcd60e51b8152602060048201526014602482015273496e73756666696369656e742062616c616e636560601b60448201526064015b60405180910390fd5b6001600160a01b03841660009081526005602090815260408083203384529091529020548211156103535760405162461bcd60e51b8152602060048201526016602482015275496e73756666696369656e7420616c6c6f77616e636560501b60448201526064016102de565b6001600160a01b0384166000908152600460205260408120805484929061037b9084906106a4565b90915550506001600160a01b038316600090815260046020526040812080548492906103a89084906106b7565b90915550506001600160a01b0384166000908152600560209081526040808320338452909152812080548492906103e09084906106a4565b92505081905550826001600160a01b0316846001600160a01b03167fddf252ad1be2c89b69c2b068fc378daa952ba7f163c4a11628f55a4df523b3ef8460405161042c91815260200190565b60405180910390a35060019392505050565b6001805461019590610654565b336000908152600460205260408120548211156104a15760405162461bcd60e51b8152602060048201526014602482015273496e73756666696369656e742062616c616e636560601b60448201526064016102de565b33600090815260046020526040812080548492906104c09084906106a4565b90915550506001600160a01b038316600090815260046020526040812080548492906104ed9084906106b7565b90915550506040518281526001600160a01b0384169033907fddf252ad1be2c89b69c2b068fc378daa952ba7f163c4a11628f55a4df523b3ef90602001610271565b600060208083528351808285015260005b8181101561055c57858101830151858201604001528201610540565b506000604082860101526040601f19601f8301168501019250505092915050565b80356001600160a01b038116811461059457600080fd5b919050565b600080604083850312156105ac57600080fd5b6105b58361057d565b946020939093013593505050565b6000806000606084860312156105d857600080fd5b6105e18461057d565b92506105ef6020850161057d565b9150604084013590509250925092565b60006020828403121561061157600080fd5b61061a8261057d565b9392505050565b6000806040838503121561063457600080fd5b61063d8361057d565b915061064b6020840161057d565b90509250929050565b600181811c9082168061066857607f821691505b60208210810361068857634e487b7160e01b600052602260045260246000fd5b50919050565b634e487b7160e01b600052601160045260246000fd5b8181038181111561027d5761027d61068e565b8082018082111561027d5761027d61068e56fea2646970667358221220cc0d321467301f28d10554088def95767d3c77884e4771bc51121e24dac174e364736f6c63430008140033ddf252ad1be2c89b69c2b068fc378daa952ba7f163c4a11628f55a4df523b3efa26469706673582212206ca27cbdd50ee7eef8b5550f32d8e9899e2a1553e2c2f23a7424bb08aeaf3b8f64736f6c63430008140033","opcodes":"PUSH1 0x80 PUSH1 0x40 MSTORE CALLVALUE DUP1 ISZERO PUSH2 0x10 JUMPI PUSH1 0x0 DUP1 REVERT JUMPDEST POP PUSH1 0x40 MLOAD PUSH2 0x1264 CODESIZE SUB DUP1 PUSH2 0x1264 DUP4 CODECOPY DUP2 ADD PUSH1 0x40 DUP2 SWAP1 MSTORE PUSH2 0x2F SWAP2 PUSH2 0x7C JUMP JUMPDEST PUSH1 0x0 DUP1 SLOAD PUSH1 0x1 PUSH1 0x1 PUSH1 0xA0 SHL SUB SWAP4 DUP5 AND PUSH1 0x1 PUSH1 0x1 PUSH1 0xA0 SHL SUB NOT SWAP2 DUP3 AND OR SWAP1 SWAP2 SSTORE PUSH1 0x1 DUP1 SLOAD SWAP3 SWAP1 SWAP4 AND SWAP2 AND OR SWAP1 SSTORE PUSH2 0xAF JUMP JUMPDEST DUP1 MLOAD PUSH1 0x1 PUSH1 0x1 PUSH1 0xA0 SHL SUB DUP2 AND DUP2 EQ PUSH2 0x77 JUMPI PUSH1 0x0 DUP1 REVERT JUMPDEST SWAP2 SWAP1 POP JUMP JUMPDEST PUSH1 0x0 DUP1 PUSH1 0x40 DUP4 DUP6 SUB SLT ISZERO PUSH2 0x8F JUMPI PUSH1 0x0 DUP1 REVERT JUMPDEST PUSH2 0x98 DUP4 PUSH2 0x60 JUMP JUMPDEST SWAP2 POP PUSH2 0xA6 PUSH1 0x20 DUP5 ADD PUSH2 0x60 JUMP JUMPDEST SWAP1 POP SWAP3 POP SWAP3 SWAP1 POP JUMP JUMPDEST PUSH2 0x11A6 DUP1 PUSH2 0xBE PUSH1 0x0 CODECOPY PUSH1 0x0 RETURN INVALID PUSH1 0x80 PUSH1 0x40 MSTORE PUSH1 0x4 CALLDATASIZE LT PUSH3 0x38 JUMPI PUSH1 0x0 CALLDATALOAD PUSH1 0xE0 SHR DUP1 PUSH4 0x61D027B3 EQ PUSH3 0x3D JUMPI DUP1 PUSH4 0x745FBA84 EQ PUSH3 0x7B JUMPI DUP1 PUSH4 0xAE87D76C EQ PUSH3 0x9D JUMPI JUMPDEST PUSH1 0x0 DUP1 REVERT JUMPDEST CALLVALUE DUP1 ISZERO PUSH3 0x4A JUMPI PUSH1 0x0 DUP1 REVERT JUMPDEST POP PUSH1 0x0 SLOAD PUSH3 0x5F SWAP1 PUSH1 0x1 PUSH1 0x1 PUSH1 0xA0 SHL SUB AND DUP2 JUMP JUMPDEST PUSH1 0x40 MLOAD PUSH1 0x1 PUSH1 0x1 PUSH1 0xA0 SHL SUB SWAP1 SWAP2 AND DUP2 MSTORE PUSH1 0x20 ADD PUSH1 0x40 MLOAD DUP1 SWAP2 SUB SWAP1 RETURN JUMPDEST CALLVALUE DUP1 ISZERO PUSH3 0x88 JUMPI PUSH1 0x0 DUP1 REVERT JUMPDEST POP PUSH1 0x1 SLOAD PUSH3 0x5F SWAP1 PUSH1 0x1 PUSH1 0x1 PUSH1 0xA0 SHL SUB AND DUP2 JUMP JUMPDEST PUSH3 0x5F PUSH3 0xAE CALLDATASIZE PUSH1 0x4 PUSH3 0x323 JUMP JUMPDEST PUSH1 0x1 SLOAD PUSH1 0x0 DUP1 SLOAD PUSH1 0x40 MLOAD SWAP2 SWAP3 DUP4 SWAP3 DUP9 SWAP3 DUP9 SWAP3 DUP9 SWAP3 PUSH1 0x1 PUSH1 0x1 PUSH1 0xA0 SHL SUB SWAP2 DUP3 AND SWAP3 SWAP1 SWAP2 AND SWAP1 PUSH3 0xDD SWAP1 PUSH3 0x26A JUMP JUMPDEST PUSH3 0xED SWAP6 SWAP5 SWAP4 SWAP3 SWAP2 SWAP1 PUSH3 0x407 JUMP JUMPDEST PUSH1 0x40 MLOAD DUP1 SWAP2 SUB SWAP1 PUSH1 0x0 CREATE DUP1 ISZERO DUP1 ISZERO PUSH3 0x10A JUMPI RETURNDATASIZE PUSH1 0x0 DUP1 RETURNDATACOPY RETURNDATASIZE PUSH1 0x0 REVERT JUMPDEST POP PUSH1 0x1 SLOAD PUSH1 0x40 MLOAD PUSH4 0x407431F7 PUSH1 0xE0 SHL DUP2 MSTORE PUSH1 0x1 PUSH1 0x1 PUSH1 0xA0 SHL SUB DUP1 DUP5 AND PUSH1 0x4 DUP4 ADD MSTORE SWAP3 SWAP4 POP SWAP2 AND SWAP1 PUSH4 0x407431F7 SWAP1 PUSH1 0x24 ADD PUSH1 0x0 PUSH1 0x40 MLOAD DUP1 DUP4 SUB DUP2 PUSH1 0x0 DUP8 DUP1 EXTCODESIZE ISZERO DUP1 ISZERO PUSH3 0x155 JUMPI PUSH1 0x0 DUP1 REVERT JUMPDEST POP GAS CALL ISZERO DUP1 ISZERO PUSH3 0x16A JUMPI RETURNDATASIZE PUSH1 0x0 DUP1 RETURNDATACOPY RETURNDATASIZE PUSH1 0x0 REVERT JUMPDEST POP POP POP POP CALLER PUSH1 0x1 PUSH1 0x1 PUSH1 0xA0 SHL SUB AND PUSH32 0xD7CBED4CCC2D30F2567AF3BF682D3F2A07E5855C61C27EE2211330951EC4196B DUP3 DUP9 DUP9 DUP8 PUSH1 0x40 MLOAD PUSH3 0x1AF SWAP5 SWAP4 SWAP3 SWAP2 SWAP1 PUSH3 0x458 JUMP JUMPDEST PUSH1 0x40 MLOAD DUP1 SWAP2 SUB SWAP1 LOG2 CALLVALUE DUP1 ISZERO PUSH3 0x260 JUMPI PUSH1 0x40 MLOAD PUSH1 0x0 SWAP1 CALLER SWAP1 DUP4 SWAP1 DUP4 DUP2 DUP2 DUP2 DUP6 DUP8 GAS CALL SWAP3 POP POP POP RETURNDATASIZE DUP1 PUSH1 0x0 DUP2 EQ PUSH3 0x203 JUMPI PUSH1 0x40 MLOAD SWAP2 POP PUSH1 0x1F NOT PUSH1 0x3F RETURNDATASIZE ADD AND DUP3 ADD PUSH1 0x40 MSTORE RETURNDATASIZE DUP3 MSTORE RETURNDATASIZE PUSH1 0x0 PUSH1 0x20 DUP5 ADD RETURNDATACOPY PUSH3 0x208 JUMP JUMPDEST PUSH1 0x60 SWAP2 POP JUMPDEST POP POP SWAP1 POP DUP1 PUSH3 0x25E JUMPI PUSH1 0x40 MLOAD PUSH3 0x461BCD PUSH1 0xE5 SHL DUP2 MSTORE PUSH1 0x20 PUSH1 0x4 DUP3 ADD MSTORE PUSH1 0x19 PUSH1 0x24 DUP3 ADD MSTORE PUSH32 0x484241522042756666657220526566756E64204661696C656400000000000000 PUSH1 0x44 DUP3 ADD MSTORE PUSH1 0x64 ADD PUSH1 0x40 MLOAD DUP1 SWAP2 SUB SWAP1 REVERT JUMPDEST POP JUMPDEST POP SWAP6 SWAP5 POP POP POP POP POP JUMP JUMPDEST PUSH2 0xCBD DUP1 PUSH3 0x4B4 DUP4 CODECOPY ADD SWAP1 JUMP JUMPDEST PUSH4 0x4E487B71 PUSH1 0xE0 SHL PUSH1 0x0 MSTORE PUSH1 0x41 PUSH1 0x4 MSTORE PUSH1 0x24 PUSH1 0x0 REVERT JUMPDEST PUSH1 0x0 DUP3 PUSH1 0x1F DUP4 ADD SLT PUSH3 0x2A0 JUMPI PUSH1 0x0 DUP1 REVERT JUMPDEST DUP2 CALLDATALOAD PUSH8 0xFFFFFFFFFFFFFFFF DUP1 DUP3 GT ISZERO PUSH3 0x2BE JUMPI PUSH3 0x2BE PUSH3 0x278 JUMP JUMPDEST PUSH1 0x40 MLOAD PUSH1 0x1F DUP4 ADD PUSH1 0x1F NOT SWAP1 DUP2 AND PUSH1 0x3F ADD AND DUP2 ADD SWAP1 DUP3 DUP3 GT DUP2 DUP4 LT OR ISZERO PUSH3 0x2E9 JUMPI PUSH3 0x2E9 PUSH3 0x278 JUMP JUMPDEST DUP2 PUSH1 0x40 MSTORE DUP4 DUP2 MSTORE DUP7 PUSH1 0x20 DUP6 DUP9 ADD ADD GT ISZERO PUSH3 0x303 JUMPI PUSH1 0x0 DUP1 REVERT JUMPDEST DUP4 PUSH1 0x20 DUP8 ADD PUSH1 0x20 DUP4 ADD CALLDATACOPY PUSH1 0x0 PUSH1 0x20 DUP6 DUP4 ADD ADD MSTORE DUP1 SWAP5 POP POP POP POP POP SWAP3 SWAP2 POP POP JUMP JUMPDEST PUSH1 0x0 DUP1 PUSH1 0x0 DUP1 PUSH1 0x80 DUP6 DUP8 SUB SLT ISZERO PUSH3 0x33A JUMPI PUSH1 0x0 DUP1 REVERT JUMPDEST DUP5 CALLDATALOAD PUSH8 0xFFFFFFFFFFFFFFFF DUP1 DUP3 GT ISZERO PUSH3 0x353 JUMPI PUSH1 0x0 DUP1 REVERT JUMPDEST PUSH3 0x361 DUP9 DUP4 DUP10 ADD PUSH3 0x28E JUMP JUMPDEST SWAP6 POP PUSH1 0x20 DUP8 ADD CALLDATALOAD SWAP2 POP DUP1 DUP3 GT ISZERO PUSH3 0x378 JUMPI PUSH1 0x0 DUP1 REVERT JUMPDEST PUSH3 0x386 DUP9 DUP4 DUP10 ADD PUSH3 0x28E JUMP JUMPDEST SWAP5 POP PUSH1 0x40 DUP8 ADD CALLDATALOAD SWAP4 POP PUSH1 0x60 DUP8 ADD CALLDATALOAD SWAP2 POP DUP1 DUP3 GT ISZERO PUSH3 0x3A4 JUMPI PUSH1 0x0 DUP1 REVERT JUMPDEST POP PUSH3 0x3B3 DUP8 DUP3 DUP9 ADD PUSH3 0x28E JUMP JUMPDEST SWAP2 POP POP SWAP3 SWAP6 SWAP2 SWAP5 POP SWAP3 POP JUMP JUMPDEST PUSH1 0x0 DUP2 MLOAD DUP1 DUP5 MSTORE PUSH1 0x0 JUMPDEST DUP2 DUP2 LT ISZERO PUSH3 0x3E7 JUMPI PUSH1 0x20 DUP2 DUP6 ADD DUP2 ADD MLOAD DUP7 DUP4 ADD DUP3 ADD MSTORE ADD PUSH3 0x3C9 JUMP JUMPDEST POP PUSH1 0x0 PUSH1 0x20 DUP3 DUP7 ADD ADD MSTORE PUSH1 0x20 PUSH1 0x1F NOT PUSH1 0x1F DUP4 ADD AND DUP6 ADD ADD SWAP2 POP POP SWAP3 SWAP2 POP POP JUMP JUMPDEST PUSH1 0xA0 DUP2 MSTORE PUSH1 0x0 PUSH3 0x41C PUSH1 0xA0 DUP4 ADD DUP9 PUSH3 0x3BF JUMP JUMPDEST DUP3 DUP2 SUB PUSH1 0x20 DUP5 ADD MSTORE PUSH3 0x430 DUP2 DUP9 PUSH3 0x3BF JUMP JUMPDEST PUSH1 0x40 DUP5 ADD SWAP7 SWAP1 SWAP7 MSTORE POP POP PUSH1 0x1 PUSH1 0x1 PUSH1 0xA0 SHL SUB SWAP3 DUP4 AND PUSH1 0x60 DUP3 ADD MSTORE SWAP2 AND PUSH1 0x80 SWAP1 SWAP2 ADD MSTORE SWAP3 SWAP2 POP POP JUMP JUMPDEST PUSH1 0x1 PUSH1 0x1 PUSH1 0xA0 SHL SUB DUP6 AND DUP2 MSTORE PUSH1 0x80 PUSH1 0x20 DUP3 ADD DUP2 SWAP1 MSTORE PUSH1 0x0 SWAP1 PUSH3 0x47E SWAP1 DUP4 ADD DUP7 PUSH3 0x3BF JUMP JUMPDEST DUP3 DUP2 SUB PUSH1 0x40 DUP5 ADD MSTORE PUSH3 0x492 DUP2 DUP7 PUSH3 0x3BF JUMP JUMPDEST SWAP1 POP DUP3 DUP2 SUB PUSH1 0x60 DUP5 ADD MSTORE PUSH3 0x4A8 DUP2 DUP6 PUSH3 0x3BF JUMP JUMPDEST SWAP8 SWAP7 POP POP POP POP POP POP POP JUMP INVALID PUSH1 0x80 PUSH1 0x40 MSTORE PUSH1 0x2 DUP1 SLOAD PUSH1 0xFF NOT AND PUSH1 0x8 OR SWAP1 SSTORE CALLVALUE DUP1 ISZERO PUSH3 0x1E JUMPI PUSH1 0x0 DUP1 REVERT JUMPDEST POP PUSH1 0x40 MLOAD PUSH3 0xCBD CODESIZE SUB DUP1 PUSH3 0xCBD DUP4 CODECOPY DUP2 ADD PUSH1 0x40 DUP2 SWAP1 MSTORE PUSH3 0x41 SWAP2 PUSH3 0x21C JUMP JUMPDEST PUSH1 0x0 PUSH3 0x4F DUP7 DUP3 PUSH3 0x344 JUMP JUMPDEST POP PUSH1 0x1 PUSH3 0x5E DUP6 DUP3 PUSH3 0x344 JUMP JUMPDEST POP PUSH1 0x2 SLOAD PUSH3 0x72 SWAP1 PUSH1 0xFF AND PUSH1 0xA PUSH3 0x525 JUMP JUMPDEST PUSH3 0x7E SWAP1 DUP5 PUSH3 0x53A JUMP JUMPDEST PUSH1 0x3 DUP2 SWAP1 SSTORE PUSH1 0x0 SWAP1 PUSH3 0x94 SWAP1 PUSH1 0x64 SWAP1 PUSH3 0x554 JUMP JUMPDEST SWAP1 POP PUSH1 0x0 DUP2 PUSH1 0x3 SLOAD PUSH3 0xA8 SWAP2 SWAP1 PUSH3 0x577 JUMP JUMPDEST PUSH1 0x1 PUSH1 0x1 PUSH1 0xA0 SHL SUB DUP6 AND PUSH1 0x0 DUP2 DUP2 MSTORE PUSH1 0x4 PUSH1 0x20 MSTORE PUSH1 0x40 DUP1 DUP3 KECCAK256 DUP5 SWAP1 SSTORE MLOAD SWAP3 SWAP4 POP SWAP1 SWAP2 PUSH1 0x0 DUP1 MLOAD PUSH1 0x20 PUSH3 0xC9D DUP4 CODECOPY DUP2 MLOAD SWAP2 MSTORE SWAP1 PUSH3 0xE9 SWAP1 DUP6 DUP2 MSTORE PUSH1 0x20 ADD SWAP1 JUMP JUMPDEST PUSH1 0x40 MLOAD DUP1 SWAP2 SUB SWAP1 LOG3 PUSH1 0x1 PUSH1 0x1 PUSH1 0xA0 SHL SUB DUP4 AND PUSH1 0x0 DUP2 DUP2 MSTORE PUSH1 0x4 PUSH1 0x20 SWAP1 DUP2 MSTORE PUSH1 0x40 DUP1 DUP4 KECCAK256 DUP7 SWAP1 SSTORE MLOAD DUP6 DUP2 MSTORE PUSH1 0x0 DUP1 MLOAD PUSH1 0x20 PUSH3 0xC9D DUP4 CODECOPY DUP2 MLOAD SWAP2 MSTORE SWAP2 ADD PUSH1 0x40 MLOAD DUP1 SWAP2 SUB SWAP1 LOG3 POP POP POP POP POP POP POP PUSH3 0x58D JUMP JUMPDEST PUSH4 0x4E487B71 PUSH1 0xE0 SHL PUSH1 0x0 MSTORE PUSH1 0x41 PUSH1 0x4 MSTORE PUSH1 0x24 PUSH1 0x0 REVERT JUMPDEST PUSH1 0x0 DUP3 PUSH1 0x1F DUP4 ADD SLT PUSH3 0x162 JUMPI PUSH1 0x0 DUP1 REVERT JUMPDEST DUP2 MLOAD PUSH1 0x1 PUSH1 0x1 PUSH1 0x40 SHL SUB DUP1 DUP3 GT ISZERO PUSH3 0x17F JUMPI PUSH3 0x17F PUSH3 0x13A JUMP JUMPDEST PUSH1 0x40 MLOAD PUSH1 0x1F DUP4 ADD PUSH1 0x1F NOT SWAP1 DUP2 AND PUSH1 0x3F ADD AND DUP2 ADD SWAP1 DUP3 DUP3 GT DUP2 DUP4 LT OR ISZERO PUSH3 0x1AA JUMPI PUSH3 0x1AA PUSH3 0x13A JUMP JUMPDEST DUP2 PUSH1 0x40 MSTORE DUP4 DUP2 MSTORE PUSH1 0x20 SWAP3 POP DUP7 DUP4 DUP6 DUP9 ADD ADD GT ISZERO PUSH3 0x1C7 JUMPI PUSH1 0x0 DUP1 REVERT JUMPDEST PUSH1 0x0 SWAP2 POP JUMPDEST DUP4 DUP3 LT ISZERO PUSH3 0x1EB JUMPI DUP6 DUP3 ADD DUP4 ADD MLOAD DUP2 DUP4 ADD DUP5 ADD MSTORE SWAP1 DUP3 ADD SWAP1 PUSH3 0x1CC JUMP JUMPDEST PUSH1 0x0 SWAP4 DUP2 ADD SWAP1 SWAP3 ADD SWAP3 SWAP1 SWAP3 MSTORE SWAP5 SWAP4 POP POP POP POP JUMP JUMPDEST DUP1 MLOAD PUSH1 0x1 PUSH1 0x1 PUSH1 0xA0 SHL SUB DUP2 AND DUP2 EQ PUSH3 0x217 JUMPI PUSH1 0x0 DUP1 REVERT JUMPDEST SWAP2 SWAP1 POP JUMP JUMPDEST PUSH1 0x0 DUP1 PUSH1 0x0 DUP1 PUSH1 0x0 PUSH1 0xA0 DUP7 DUP9 SUB SLT ISZERO PUSH3 0x235 JUMPI PUSH1 0x0 DUP1 REVERT JUMPDEST DUP6 MLOAD PUSH1 0x1 PUSH1 0x1 PUSH1 0x40 SHL SUB DUP1 DUP3 GT ISZERO PUSH3 0x24D JUMPI PUSH1 0x0 DUP1 REVERT JUMPDEST PUSH3 0x25B DUP10 DUP4 DUP11 ADD PUSH3 0x150 JUMP JUMPDEST SWAP7 POP PUSH1 0x20 DUP9 ADD MLOAD SWAP2 POP DUP1 DUP3 GT ISZERO PUSH3 0x272 JUMPI PUSH1 0x0 DUP1 REVERT JUMPDEST POP PUSH3 0x281 DUP9 DUP3 DUP10 ADD PUSH3 0x150 JUMP JUMPDEST SWAP5 POP POP PUSH1 0x40 DUP7 ADD MLOAD SWAP3 POP PUSH3 0x299 PUSH1 0x60 DUP8 ADD PUSH3 0x1FF JUMP JUMPDEST SWAP2 POP PUSH3 0x2A9 PUSH1 0x80 DUP8 ADD PUSH3 0x1FF JUMP JUMPDEST SWAP1 POP SWAP3 SWAP6 POP SWAP3 SWAP6 SWAP1 SWAP4 POP JUMP JUMPDEST PUSH1 0x1 DUP2 DUP2 SHR SWAP1 DUP3 AND DUP1 PUSH3 0x2CA JUMPI PUSH1 0x7F DUP3 AND SWAP2 POP JUMPDEST PUSH1 0x20 DUP3 LT DUP2 SUB PUSH3 0x2EB JUMPI PUSH4 0x4E487B71 PUSH1 0xE0 SHL PUSH1 0x0 MSTORE PUSH1 0x22 PUSH1 0x4 MSTORE PUSH1 0x24 PUSH1 0x0 REVERT JUMPDEST POP SWAP2 SWAP1 POP JUMP JUMPDEST PUSH1 0x1F DUP3 GT ISZERO PUSH3 0x33F JUMPI PUSH1 0x0 DUP2 DUP2 MSTORE PUSH1 0x20 DUP2 KECCAK256 PUSH1 0x1F DUP6 ADD PUSH1 0x5 SHR DUP2 ADD PUSH1 0x20 DUP7 LT ISZERO PUSH3 0x31A JUMPI POP DUP1 JUMPDEST PUSH1 0x1F DUP6 ADD PUSH1 0x5 SHR DUP3 ADD SWAP2 POP JUMPDEST DUP2 DUP2 LT ISZERO PUSH3 0x33B JUMPI DUP3 DUP2 SSTORE PUSH1 0x1 ADD PUSH3 0x326 JUMP JUMPDEST POP POP POP JUMPDEST POP POP POP JUMP JUMPDEST DUP2 MLOAD PUSH1 0x1 PUSH1 0x1 PUSH1 0x40 SHL SUB DUP2 GT ISZERO PUSH3 0x360 JUMPI PUSH3 0x360 PUSH3 0x13A JUMP JUMPDEST PUSH3 0x378 DUP2 PUSH3 0x371 DUP5 SLOAD PUSH3 0x2B5 JUMP JUMPDEST DUP5 PUSH3 0x2F1 JUMP JUMPDEST PUSH1 0x20 DUP1 PUSH1 0x1F DUP4 GT PUSH1 0x1 DUP2 EQ PUSH3 0x3B0 JUMPI PUSH1 0x0 DUP5 ISZERO PUSH3 0x397 JUMPI POP DUP6 DUP4 ADD MLOAD JUMPDEST PUSH1 0x0 NOT PUSH1 0x3 DUP7 SWAP1 SHL SHR NOT AND PUSH1 0x1 DUP6 SWAP1 SHL OR DUP6 SSTORE PUSH3 0x33B JUMP JUMPDEST PUSH1 0x0 DUP6 DUP2 MSTORE PUSH1 0x20 DUP2 KECCAK256 PUSH1 0x1F NOT DUP7 AND SWAP2 JUMPDEST DUP3 DUP2 LT ISZERO PUSH3 0x3E1 JUMPI DUP9 DUP7 ADD MLOAD DUP3 SSTORE SWAP5 DUP5 ADD SWAP5 PUSH1 0x1 SWAP1 SWAP2 ADD SWAP1 DUP5 ADD PUSH3 0x3C0 JUMP JUMPDEST POP DUP6 DUP3 LT ISZERO PUSH3 0x400 JUMPI DUP8 DUP6 ADD MLOAD PUSH1 0x0 NOT PUSH1 0x3 DUP9 SWAP1 SHL PUSH1 0xF8 AND SHR NOT AND DUP2 SSTORE JUMPDEST POP POP POP POP POP PUSH1 0x1 SWAP1 DUP2 SHL ADD SWAP1 SSTORE POP JUMP JUMPDEST PUSH4 0x4E487B71 PUSH1 0xE0 SHL PUSH1 0x0 MSTORE PUSH1 0x11 PUSH1 0x4 MSTORE PUSH1 0x24 PUSH1 0x0 REVERT JUMPDEST PUSH1 0x1 DUP2 DUP2 JUMPDEST DUP1 DUP6 GT ISZERO PUSH3 0x467 JUMPI DUP2 PUSH1 0x0 NOT DIV DUP3 GT ISZERO PUSH3 0x44B JUMPI PUSH3 0x44B PUSH3 0x410 JUMP JUMPDEST DUP1 DUP6 AND ISZERO PUSH3 0x459 JUMPI SWAP2 DUP2 MUL SWAP2 JUMPDEST SWAP4 DUP5 SHR SWAP4 SWAP1 DUP1 MUL SWAP1 PUSH3 0x42B JUMP JUMPDEST POP SWAP3 POP SWAP3 SWAP1 POP JUMP JUMPDEST PUSH1 0x0 DUP3 PUSH3 0x480 JUMPI POP PUSH1 0x1 PUSH3 0x51F JUMP JUMPDEST DUP2 PUSH3 0x48F JUMPI POP PUSH1 0x0 PUSH3 0x51F JUMP JUMPDEST DUP2 PUSH1 0x1 DUP2 EQ PUSH3 0x4A8 JUMPI PUSH1 0x2 DUP2 EQ PUSH3 0x4B3 JUMPI PUSH3 0x4D3 JUMP JUMPDEST PUSH1 0x1 SWAP2 POP POP PUSH3 0x51F JUMP JUMPDEST PUSH1 0xFF DUP5 GT ISZERO PUSH3 0x4C7 JUMPI PUSH3 0x4C7 PUSH3 0x410 JUMP JUMPDEST POP POP PUSH1 0x1 DUP3 SHL PUSH3 0x51F JUMP JUMPDEST POP PUSH1 0x20 DUP4 LT PUSH2 0x133 DUP4 LT AND PUSH1 0x4E DUP5 LT PUSH1 0xB DUP5 LT AND OR ISZERO PUSH3 0x4F8 JUMPI POP DUP2 DUP2 EXP PUSH3 0x51F JUMP JUMPDEST PUSH3 0x504 DUP4 DUP4 PUSH3 0x426 JUMP JUMPDEST DUP1 PUSH1 0x0 NOT DIV DUP3 GT ISZERO PUSH3 0x51B JUMPI PUSH3 0x51B PUSH3 0x410 JUMP JUMPDEST MUL SWAP1 POP JUMPDEST SWAP3 SWAP2 POP POP JUMP JUMPDEST PUSH1 0x0 PUSH3 0x533 DUP4 DUP4 PUSH3 0x46F JUMP JUMPDEST SWAP4 SWAP3 POP POP POP JUMP JUMPDEST DUP1 DUP3 MUL DUP2 ISZERO DUP3 DUP3 DIV DUP5 EQ OR PUSH3 0x51F JUMPI PUSH3 0x51F PUSH3 0x410 JUMP JUMPDEST PUSH1 0x0 DUP3 PUSH3 0x572 JUMPI PUSH4 0x4E487B71 PUSH1 0xE0 SHL PUSH1 0x0 MSTORE PUSH1 0x12 PUSH1 0x4 MSTORE PUSH1 0x24 PUSH1 0x0 REVERT JUMPDEST POP DIV SWAP1 JUMP JUMPDEST DUP2 DUP2 SUB DUP2 DUP2 GT ISZERO PUSH3 0x51F JUMPI PUSH3 0x51F PUSH3 0x410 JUMP JUMPDEST PUSH2 0x700 DUP1 PUSH3 0x59D PUSH1 0x0 CODECOPY PUSH1 0x0 RETURN INVALID PUSH1 0x80 PUSH1 0x40 MSTORE CALLVALUE DUP1 ISZERO PUSH2 0x10 JUMPI PUSH1 0x0 DUP1 REVERT JUMPDEST POP PUSH1 0x4 CALLDATASIZE LT PUSH2 0x93 JUMPI PUSH1 0x0 CALLDATALOAD PUSH1 0xE0 SHR DUP1 PUSH4 0x313CE567 GT PUSH2 0x66 JUMPI DUP1 PUSH4 0x313CE567 EQ PUSH2 0x103 JUMPI DUP1 PUSH4 0x70A08231 EQ PUSH2 0x122 JUMPI DUP1 PUSH4 0x95D89B41 EQ PUSH2 0x142 JUMPI DUP1 PUSH4 0xA9059CBB EQ PUSH2 0x14A JUMPI DUP1 PUSH4 0xDD62ED3E EQ PUSH2 0x15D JUMPI PUSH1 0x0 DUP1 REVERT JUMPDEST DUP1 PUSH4 0x6FDDE03 EQ PUSH2 0x98 JUMPI DUP1 PUSH4 0x95EA7B3 EQ PUSH2 0xB6 JUMPI DUP1 PUSH4 0x18160DDD EQ PUSH2 0xD9 JUMPI DUP1 PUSH4 0x23B872DD EQ PUSH2 0xF0 JUMPI JUMPDEST PUSH1 0x0 DUP1 REVERT JUMPDEST PUSH2 0xA0 PUSH2 0x188 JUMP JUMPDEST PUSH1 0x40 MLOAD PUSH2 0xAD SWAP2 SWAP1 PUSH2 0x52F JUMP JUMPDEST PUSH1 0x40 MLOAD DUP1 SWAP2 SUB SWAP1 RETURN JUMPDEST PUSH2 0xC9 PUSH2 0xC4 CALLDATASIZE PUSH1 0x4 PUSH2 0x599 JUMP JUMPDEST PUSH2 0x216 JUMP JUMPDEST PUSH1 0x40 MLOAD SWAP1 ISZERO ISZERO DUP2 MSTORE PUSH1 0x20 ADD PUSH2 0xAD JUMP JUMPDEST PUSH2 0xE2 PUSH1 0x3 SLOAD DUP2 JUMP JUMPDEST PUSH1 0x40 MLOAD SWAP1 DUP2 MSTORE PUSH1 0x20 ADD PUSH2 0xAD JUMP JUMPDEST PUSH2 0xC9 PUSH2 0xFE CALLDATASIZE PUSH1 0x4 PUSH2 0x5C3 JUMP JUMPDEST PUSH2 0x283 JUMP JUMPDEST PUSH1 0x2 SLOAD PUSH2 0x110 SWAP1 PUSH1 0xFF AND DUP2 JUMP JUMPDEST PUSH1 0x40 MLOAD PUSH1 0xFF SWAP1 SWAP2 AND DUP2 MSTORE PUSH1 0x20 ADD PUSH2 0xAD JUMP JUMPDEST PUSH2 0xE2 PUSH2 0x130 CALLDATASIZE PUSH1 0x4 PUSH2 0x5FF JUMP JUMPDEST PUSH1 0x4 PUSH1 0x20 MSTORE PUSH1 0x0 SWAP1 DUP2 MSTORE PUSH1 0x40 SWAP1 KECCAK256 SLOAD DUP2 JUMP JUMPDEST PUSH2 0xA0 PUSH2 0x43E JUMP JUMPDEST PUSH2 0xC9 PUSH2 0x158 CALLDATASIZE PUSH1 0x4 PUSH2 0x599 JUMP JUMPDEST PUSH2 0x44B JUMP JUMPDEST PUSH2 0xE2 PUSH2 0x16B CALLDATASIZE PUSH1 0x4 PUSH2 0x621 JUMP JUMPDEST PUSH1 0x5 PUSH1 0x20 SWAP1 DUP2 MSTORE PUSH1 0x0 SWAP3 DUP4 MSTORE PUSH1 0x40 DUP1 DUP5 KECCAK256 SWAP1 SWAP2 MSTORE SWAP1 DUP3 MSTORE SWAP1 KECCAK256 SLOAD DUP2 JUMP JUMPDEST PUSH1 0x0 DUP1 SLOAD PUSH2 0x195 SWAP1 PUSH2 0x654 JUMP JUMPDEST DUP1 PUSH1 0x1F ADD PUSH1 0x20 DUP1 SWAP2 DIV MUL PUSH1 0x20 ADD PUSH1 0x40 MLOAD SWAP1 DUP2 ADD PUSH1 0x40 MSTORE DUP1 SWAP3 SWAP2 SWAP1 DUP2 DUP2 MSTORE PUSH1 0x20 ADD DUP3 DUP1 SLOAD PUSH2 0x1C1 SWAP1 PUSH2 0x654 JUMP JUMPDEST DUP1 ISZERO PUSH2 0x20E JUMPI DUP1 PUSH1 0x1F LT PUSH2 0x1E3 JUMPI PUSH2 0x100 DUP1 DUP4 SLOAD DIV MUL DUP4 MSTORE SWAP2 PUSH1 0x20 ADD SWAP2 PUSH2 0x20E JUMP JUMPDEST DUP3 ADD SWAP2 SWAP1 PUSH1 0x0 MSTORE PUSH1 0x20 PUSH1 0x0 KECCAK256 SWAP1 JUMPDEST DUP2 SLOAD DUP2 MSTORE SWAP1 PUSH1 0x1 ADD SWAP1 PUSH1 0x20 ADD DUP1 DUP4 GT PUSH2 0x1F1 JUMPI DUP3 SWAP1 SUB PUSH1 0x1F AND DUP3 ADD SWAP2 JUMPDEST POP POP POP POP POP DUP2 JUMP JUMPDEST CALLER PUSH1 0x0 DUP2 DUP2 MSTORE PUSH1 0x5 PUSH1 0x20 SWAP1 DUP2 MSTORE PUSH1 0x40 DUP1 DUP4 KECCAK256 PUSH1 0x1 PUSH1 0x1 PUSH1 0xA0 SHL SUB DUP8 AND DUP1 DUP6 MSTORE SWAP3 MSTORE DUP1 DUP4 KECCAK256 DUP6 SWAP1 SSTORE MLOAD SWAP2 SWAP3 SWAP1 SWAP2 PUSH32 0x8C5BE1E5EBEC7D5BD14F71427D1E84F3DD0314C0F7B2291E5B200AC8C7C3B925 SWAP1 PUSH2 0x271 SWAP1 DUP7 DUP2 MSTORE PUSH1 0x20 ADD SWAP1 JUMP JUMPDEST PUSH1 0x40 MLOAD DUP1 SWAP2 SUB SWAP1 LOG3 POP PUSH1 0x1 JUMPDEST SWAP3 SWAP2 POP POP JUMP JUMPDEST PUSH1 0x1 PUSH1 0x1 PUSH1 0xA0 SHL SUB DUP4 AND PUSH1 0x0 SWAP1 DUP2 MSTORE PUSH1 0x4 PUSH1 0x20 MSTORE PUSH1 0x40 DUP2 KECCAK256 SLOAD DUP3 GT ISZERO PUSH2 0x2E7 JUMPI PUSH1 0x40 MLOAD PUSH3 0x461BCD PUSH1 0xE5 SHL DUP2 MSTORE PUSH1 0x20 PUSH1 0x4 DUP3 ADD MSTORE PUSH1 0x14 PUSH1 0x24 DUP3 ADD MSTORE PUSH20 0x496E73756666696369656E742062616C616E6365 PUSH1 0x60 SHL PUSH1 0x44 DUP3 ADD MSTORE PUSH1 0x64 ADD JUMPDEST PUSH1 0x40 MLOAD DUP1 SWAP2 SUB SWAP1 REVERT JUMPDEST PUSH1 0x1 PUSH1 0x1 PUSH1 0xA0 SHL SUB DUP5 AND PUSH1 0x0 SWAP1 DUP2 MSTORE PUSH1 0x5 PUSH1 0x20 SWAP1 DUP2 MSTORE PUSH1 0x40 DUP1 DUP4 KECCAK256 CALLER DUP5 MSTORE SWAP1 SWAP2 MSTORE SWAP1 KECCAK256 SLOAD DUP3 GT ISZERO PUSH2 0x353 JUMPI PUSH1 0x40 MLOAD PUSH3 0x461BCD PUSH1 0xE5 SHL DUP2 MSTORE PUSH1 0x20 PUSH1 0x4 DUP3 ADD MSTORE PUSH1 0x16 PUSH1 0x24 DUP3 ADD MSTORE PUSH22 0x496E73756666696369656E7420616C6C6F77616E6365 PUSH1 0x50 SHL PUSH1 0x44 DUP3 ADD MSTORE PUSH1 0x64 ADD PUSH2 0x2DE JUMP JUMPDEST PUSH1 0x1 PUSH1 0x1 PUSH1 0xA0 SHL SUB DUP5 AND PUSH1 0x0 SWAP1 DUP2 MSTORE PUSH1 0x4 PUSH1 0x20 MSTORE PUSH1 0x40 DUP2 KECCAK256 DUP1 SLOAD DUP5 SWAP3 SWAP1 PUSH2 0x37B SWAP1 DUP5 SWAP1 PUSH2 0x6A4 JUMP JUMPDEST SWAP1 SWAP2 SSTORE POP POP PUSH1 0x1 PUSH1 0x1 PUSH1 0xA0 SHL SUB DUP4 AND PUSH1 0x0 SWAP1 DUP2 MSTORE PUSH1 0x4 PUSH1 0x20 MSTORE PUSH1 0x40 DUP2 KECCAK256 DUP1 SLOAD DUP5 SWAP3 SWAP1 PUSH2 0x3A8 SWAP1 DUP5 SWAP1 PUSH2 0x6B7 JUMP JUMPDEST SWAP1 SWAP2 SSTORE POP POP PUSH1 0x1 PUSH1 0x1 PUSH1 0xA0 SHL SUB DUP5 AND PUSH1 0x0 SWAP1 DUP2 MSTORE PUSH1 0x5 PUSH1 0x20 SWAP1 DUP2 MSTORE PUSH1 0x40 DUP1 DUP4 KECCAK256 CALLER DUP5 MSTORE SWAP1 SWAP2 MSTORE DUP2 KECCAK256 DUP1 SLOAD DUP5 SWAP3 SWAP1 PUSH2 0x3E0 SWAP1 DUP5 SWAP1 PUSH2 0x6A4 JUMP JUMPDEST SWAP3 POP POP DUP2 SWAP1 SSTORE POP DUP3 PUSH1 0x1 PUSH1 0x1 PUSH1 0xA0 SHL SUB AND DUP5 PUSH1 0x1 PUSH1 0x1 PUSH1 0xA0 SHL SUB AND PUSH32 0xDDF252AD1BE2C89B69C2B068FC378DAA952BA7F163C4A11628F55A4DF523B3EF DUP5 PUSH1 0x40 MLOAD PUSH2 0x42C SWAP2 DUP2 MSTORE PUSH1 0x20 ADD SWAP1 JUMP JUMPDEST PUSH1 0x40 MLOAD DUP1 SWAP2 SUB SWAP1 LOG3 POP PUSH1 0x1 SWAP4 SWAP3 POP POP POP JUMP JUMPDEST PUSH1 0x1 DUP1 SLOAD PUSH2 0x195 SWAP1 PUSH2 0x654 JUMP JUMPDEST CALLER PUSH1 0x0 SWAP1 DUP2 MSTORE PUSH1 0x4 PUSH1 0x20 MSTORE PUSH1 0x40 DUP2 KECCAK256 SLOAD DUP3 GT ISZERO PUSH2 0x4A1 JUMPI PUSH1 0x40 MLOAD PUSH3 0x461BCD PUSH1 0xE5 SHL DUP2 MSTORE PUSH1 0x20 PUSH1 0x4 DUP3 ADD MSTORE PUSH1 0x14 PUSH1 0x24 DUP3 ADD MSTORE PUSH20 0x496E73756666696369656E742062616C616E6365 PUSH1 0x60 SHL PUSH1 0x44 DUP3 ADD MSTORE PUSH1 0x64 ADD PUSH2 0x2DE JUMP JUMPDEST CALLER PUSH1 0x0 SWAP1 DUP2 MSTORE PUSH1 0x4 PUSH1 0x20 MSTORE PUSH1 0x40 DUP2 KECCAK256 DUP1 SLOAD DUP5 SWAP3 SWAP1 PUSH2 0x4C0 SWAP1 DUP5 SWAP1 PUSH2 0x6A4 JUMP JUMPDEST SWAP1 SWAP2 SSTORE POP POP PUSH1 0x1 PUSH1 0x1 PUSH1 0xA0 SHL SUB DUP4 AND PUSH1 0x0 SWAP1 DUP2 MSTORE PUSH1 0x4 PUSH1 0x20 MSTORE PUSH1 0x40 DUP2 KECCAK256 DUP1 SLOAD DUP5 SWAP3 SWAP1 PUSH2 0x4ED SWAP1 DUP5 SWAP1 PUSH2 0x6B7 JUMP JUMPDEST SWAP1 SWAP2 SSTORE POP POP PUSH1 0x40 MLOAD DUP3 DUP2 MSTORE PUSH1 0x1 PUSH1 0x1 PUSH1 0xA0 SHL SUB DUP5 AND SWAP1 CALLER SWAP1 PUSH32 0xDDF252AD1BE2C89B69C2B068FC378DAA952BA7F163C4A11628F55A4DF523B3EF SWAP1 PUSH1 0x20 ADD PUSH2 0x271 JUMP JUMPDEST PUSH1 0x0 PUSH1 0x20 DUP1 DUP4 MSTORE DUP4 MLOAD DUP1 DUP3 DUP6 ADD MSTORE PUSH1 0x0 JUMPDEST DUP2 DUP2 LT ISZERO PUSH2 0x55C JUMPI DUP6 DUP2 ADD DUP4 ADD MLOAD DUP6 DUP3 ADD PUSH1 0x40 ADD MSTORE DUP3 ADD PUSH2 0x540 JUMP JUMPDEST POP PUSH1 0x0 PUSH1 0x40 DUP3 DUP7 ADD ADD MSTORE PUSH1 0x40 PUSH1 0x1F NOT PUSH1 0x1F DUP4 ADD AND DUP6 ADD ADD SWAP3 POP POP POP SWAP3 SWAP2 POP POP JUMP JUMPDEST DUP1 CALLDATALOAD PUSH1 0x1 PUSH1 0x1 PUSH1 0xA0 SHL SUB DUP2 AND DUP2 EQ PUSH2 0x594 JUMPI PUSH1 0x0 DUP1 REVERT JUMPDEST SWAP2 SWAP1 POP JUMP JUMPDEST PUSH1 0x0 DUP1 PUSH1 0x40 DUP4 DUP6 SUB SLT ISZERO PUSH2 0x5AC JUMPI PUSH1 0x0 DUP1 REVERT JUMPDEST PUSH2 0x5B5 DUP4 PUSH2 0x57D JUMP JUMPDEST SWAP5 PUSH1 0x20 SWAP4 SWAP1 SWAP4 ADD CALLDATALOAD SWAP4 POP POP POP JUMP JUMPDEST PUSH1 0x0 DUP1 PUSH1 0x0 PUSH1 0x60 DUP5 DUP7 SUB SLT ISZERO PUSH2 0x5D8 JUMPI PUSH1 0x0 DUP1 REVERT JUMPDEST PUSH2 0x5E1 DUP5 PUSH2 0x57D JUMP JUMPDEST SWAP3 POP PUSH2 0x5EF PUSH1 0x20 DUP6 ADD PUSH2 0x57D JUMP JUMPDEST SWAP2 POP PUSH1 0x40 DUP5 ADD CALLDATALOAD SWAP1 POP SWAP3 POP SWAP3 POP SWAP3 JUMP JUMPDEST PUSH1 0x0 PUSH1 0x20 DUP3 DUP5 SUB SLT ISZERO PUSH2 0x611 JUMPI PUSH1 0x0 DUP1 REVERT JUMPDEST PUSH2 0x61A DUP3 PUSH2 0x57D JUMP JUMPDEST SWAP4 SWAP3 POP POP POP JUMP JUMPDEST PUSH1 0x0 DUP1 PUSH1 0x40 DUP4 DUP6 SUB SLT ISZERO PUSH2 0x634 JUMPI PUSH1 0x0 DUP1 REVERT JUMPDEST PUSH2 0x63D DUP4 PUSH2 0x57D JUMP JUMPDEST SWAP2 POP PUSH2 0x64B PUSH1 0x20 DUP5 ADD PUSH2 0x57D JUMP JUMPDEST SWAP1 POP SWAP3 POP SWAP3 SWAP1 POP JUMP JUMPDEST PUSH1 0x1 DUP2 DUP2 SHR SWAP1 DUP3 AND DUP1 PUSH2 0x668 JUMPI PUSH1 0x7F DUP3 AND SWAP2 POP JUMPDEST PUSH1 0x20 DUP3 LT DUP2 SUB PUSH2 0x688 JUMPI PUSH4 0x4E487B71 PUSH1 0xE0 SHL PUSH1 0x0 MSTORE PUSH1 0x22 PUSH1 0x4 MSTORE PUSH1 0x24 PUSH1 0x0 REVERT JUMPDEST POP SWAP2 SWAP1 POP JUMP JUMPDEST PUSH4 0x4E487B71 PUSH1 0xE0 SHL PUSH1 0x0 MSTORE PUSH1 0x11 PUSH1 0x4 MSTORE PUSH1 0x24 PUSH1 0x0 REVERT JUMPDEST DUP2 DUP2 SUB DUP2 DUP2 GT ISZERO PUSH2 0x27D JUMPI PUSH2 0x27D PUSH2 0x68E JUMP JUMPDEST DUP1 DUP3 ADD DUP1 DUP3 GT ISZERO PUSH2 0x27D JUMPI PUSH2 0x27D PUSH2 0x68E JUMP INVALID LOG2 PUSH5 0x6970667358 0x22 SLT KECCAK256 0xCC 0xD ORIGIN EQ PUSH8 0x301F28D10554088D 0xEF SWAP6 PUSH23 0x7D3C77884E4771BC51121E24DAC174E364736F6C634300 ADDMOD EQ STOP CALLER 0xDD CALLCODE MSTORE 0xAD SHL 0xE2 0xC8 SWAP12 PUSH10 0xC2B068FC378DAA952BA7 CALL PUSH4 0xC4A11628 CREATE2 GAS 0x4D CREATE2 0x23 0xB3 0xEF LOG2 PUSH5 0x6970667358 0x22 SLT KECCAK256 PUSH13 0xA27CBDD50EE7EEF8B5550F32D8 0xE9 DUP10 SWAP15 0x2A ISZERO MSTORE8 0xE2 0xC2 CALLCODE GASPRICE PUSH21 0x24BB08AEAF3B8F64736F6C63430008140033000000 "},"methodIdentifiers":{"createMemeToken(string,string,uint256,string)":"ae87d76c","dexAddress()":"745fba84","treasury()":"61d027b3"}}}}}