{"contracts/MemeFactoryHTSDelegate.sol":{"MemeFactoryHTSDelegate":{"abi":[{"anonymous":false,"inputs":[{"indexed":false,"internalType":"int64","name":"responseCode","type":"int64"}],"name":"DebugResponse","type":"event"},{"anonymous":false,"inputs":[{"indexed":true,"internalType":"address","name":"creator","type":"address"},{"indexed":false,"internalType":"address","name":"tokenAddress","type":"address"},{"indexed":false,"internalType":"string","name":"name","type":"string"},{"indexed":false,"internalType":"string","name":"symbol","type":"string"},{"indexed":false,"internalType":"string","name":"imageUrl","type":"string"}],"name":"MemeLaunched","type":"event"},{"inputs":[{"internalType":"string","name":"name","type":"string"},{"internalType":"string","name":"symbol","type":"string"},{"internalType":"int64","name":"initialSupply","type":"int64"},{"internalType":"string","name":"imageUrl","type":"string"}],"name":"createMemeToken","outputs":[{"internalType":"address","name":"","type":"address"}],"stateMutability":"nonpayable","type":"function"}],"evm":{"bytecode":{"linkReferences":{},"object":"608060405234801561001057600080fd5b506108b0806100206000396000f3fe608060405234801561001057600080fd5b506004361061002b5760003560e01c8063e88b3cdf14610030575b600080fd5b61004361003e3660046104cb565b61005f565b6040516001600160a01b03909116815260200160405180910390f35b604080516001808252818301909252600091829190816020015b6100816103b9565b8152602001906001900390816100795790505090506040518060400160405280600181526020016040518060a0016040528060011515815260200160006001600160a01b03168152602001600067ffffffffffffffff8111156100e6576100e6610416565b6040519080825280601f01601f191660200182016040528015610110576020820181803683370190505b5081526040805160008082526020808301845284019190915291018190529152825183919061014157610141610568565b60209081029190910181019190915260408051606080820183526000808352338386018190526276a700848601528451610120810186528c81529586018b9052858501529084018790526080840181905260a0840181905260c0840181905260e0840185905261010084018290529151909291906364ef9ec560e01b906101d19084908a90600890602401610699565b604051602081830303815290604052906001600160e01b0319166020820180516001600160e01b03838183161783525050505090506000806101676001600160a01b03168360405161022391906107c3565b600060405180830381855af49150503d806000811461025e576040519150601f19603f3d011682016040523d82523d6000602084013e610263565b606091505b5091509150816102ba5760405162461bcd60e51b815260206004820152601a60248201527f44656c656761746563616c6c20746f20485453206661696c656400000000000060448201526064015b60405180910390fd5b600080828060200190518101906102d191906107df565b604051600783900b815291935091507f65f0ff6f6f8cc1b3ac8ae3d76da2a0ad35a52c26f3991c177b74ccdc87080f5f9060200160405180910390a18160070b6016146103605760405162461bcd60e51b815260206004820152601e60248201527f48545320507265636f6d70696c6520526573706f6e7365204661696c6564000060448201526064016102b1565b336001600160a01b03167fd7cbed4ccc2d30f2567af3bf682d3f2a07e5855c61c27ee2211330951ec4196b828f8f8e60405161039f9493929190610825565b60405180910390a29750505050505050505b949350505050565b6040518060400160405280600081526020016104116040518060a0016040528060001515815260200160006001600160a01b03168152602001606081526020016060815260200160006001600160a01b031681525090565b905290565b634e487b7160e01b600052604160045260246000fd5b600082601f83011261043d57600080fd5b813567ffffffffffffffff8082111561045857610458610416565b604051601f8301601f19908116603f0116810190828211818310171561048057610480610416565b8160405283815286602085880101111561049957600080fd5b836020870160208301376000602085830101528094505050505092915050565b8060070b81146104c857600080fd5b50565b600080600080608085870312156104e157600080fd5b843567ffffffffffffffff808211156104f957600080fd5b6105058883890161042c565b9550602087013591508082111561051b57600080fd5b6105278883890161042c565b945060408701359150610539826104b9565b9092506060860135908082111561054f57600080fd5b5061055c8782880161042c565b91505092959194509250565b634e487b7160e01b600052603260045260246000fd5b60005b83811015610599578181015183820152602001610581565b50506000910152565b600081518084526105ba81602086016020860161057e565b601f01601f19169290920160200192915050565b600082825180855260208086019550808260051b84010181860160005b8481101561068c57858303601f1901895281518051845284015160408585018190528151151581860152818601516001600160a01b039081166060808801919091529183015160a0608080890182905291939092909161064e60e08a01866105a2565b92860151898403603f1901858b015292945061066a85846105a2565b9501511660c097909701969096525050988401989250908301906001016105eb565b5090979650505050505050565b60608152600084516101608060608501526106b86101c08501836105a2565b91506020870151605f19808685030160808701526106d684836105a2565b9350604089015191506106f460a08701836001600160a01b03169052565b60608901519150808685030160c087015261070f84836105a2565b93506080890151915061072660e087018315159052565b60a089015191506101006107418188018463ffffffff169052565b60c08a0151151561012088015260e08a01518786038301610140890152925061076a85846105ce565b9450808a0151925050506107a682860182805163ffffffff90811683526020808301516001600160a01b03169084015260409182015116910152565b5050600785900b602084015290506103b1604083018460030b9052565b600082516107d581846020870161057e565b9190910192915050565b600080604083850312156107f257600080fd5b82516107fd816104b9565b60208401519092506001600160a01b038116811461081a57600080fd5b809150509250929050565b6001600160a01b0385168152608060208201819052600090610849908301866105a2565b828103604084015261085b81866105a2565b9050828103606084015261086f81856105a2565b97965050505050505056fea26469706673582212203dab23b1e74337f223362f429fcd9f924120d761fd11ec10fb0a6ed1113be1f264736f6c63430008140033","opcodes":"PUSH1 0x80 PUSH1 0x40 MSTORE CALLVALUE DUP1 ISZERO PUSH2 0x10 JUMPI PUSH1 0x0 DUP1 REVERT JUMPDEST POP PUSH2 0x8B0 DUP1 PUSH2 0x20 PUSH1 0x0 CODECOPY PUSH1 0x0 RETURN INVALID PUSH1 0x80 PUSH1 0x40 MSTORE CALLVALUE DUP1 ISZERO PUSH2 0x10 JUMPI PUSH1 0x0 DUP1 REVERT JUMPDEST POP PUSH1 0x4 CALLDATASIZE LT PUSH2 0x2B JUMPI PUSH1 0x0 CALLDATALOAD PUSH1 0xE0 SHR DUP1 PUSH4 0xE88B3CDF EQ PUSH2 0x30 JUMPI JUMPDEST PUSH1 0x0 DUP1 REVERT JUMPDEST PUSH2 0x43 PUSH2 0x3E CALLDATASIZE PUSH1 0x4 PUSH2 0x4CB JUMP JUMPDEST PUSH2 0x5F JUMP JUMPDEST PUSH1 0x40 MLOAD PUSH1 0x1 PUSH1 0x1 PUSH1 0xA0 SHL SUB SWAP1 SWAP2 AND DUP2 MSTORE PUSH1 0x20 ADD PUSH1 0x40 MLOAD DUP1 SWAP2 SUB SWAP1 RETURN JUMPDEST PUSH1 0x40 DUP1 MLOAD PUSH1 0x1 DUP1 DUP3 MSTORE DUP2 DUP4 ADD SWAP1 SWAP3 MSTORE PUSH1 0x0 SWAP2 DUP3 SWAP2 SWAP1 DUP2 PUSH1 0x20 ADD JUMPDEST PUSH2 0x81 PUSH2 0x3B9 JUMP JUMPDEST DUP2 MSTORE PUSH1 0x20 ADD SWAP1 PUSH1 0x1 SWAP1 SUB SWAP1 DUP2 PUSH2 0x79 JUMPI SWAP1 POP POP SWAP1 POP PUSH1 0x40 MLOAD DUP1 PUSH1 0x40 ADD PUSH1 0x40 MSTORE DUP1 PUSH1 0x1 DUP2 MSTORE PUSH1 0x20 ADD PUSH1 0x40 MLOAD DUP1 PUSH1 0xA0 ADD PUSH1 0x40 MSTORE DUP1 PUSH1 0x1 ISZERO ISZERO DUP2 MSTORE PUSH1 0x20 ADD PUSH1 0x0 PUSH1 0x1 PUSH1 0x1 PUSH1 0xA0 SHL SUB AND DUP2 MSTORE PUSH1 0x20 ADD PUSH1 0x0 PUSH8 0xFFFFFFFFFFFFFFFF DUP2 GT ISZERO PUSH2 0xE6 JUMPI PUSH2 0xE6 PUSH2 0x416 JUMP JUMPDEST PUSH1 0x40 MLOAD SWAP1 DUP1 DUP3 MSTORE DUP1 PUSH1 0x1F ADD PUSH1 0x1F NOT AND PUSH1 0x20 ADD DUP3 ADD PUSH1 0x40 MSTORE DUP1 ISZERO PUSH2 0x110 JUMPI PUSH1 0x20 DUP3 ADD DUP2 DUP1 CALLDATASIZE DUP4 CALLDATACOPY ADD SWAP1 POP JUMPDEST POP DUP2 MSTORE PUSH1 0x40 DUP1 MLOAD PUSH1 0x0 DUP1 DUP3 MSTORE PUSH1 0x20 DUP1 DUP4 ADD DUP5 MSTORE DUP5 ADD SWAP2 SWAP1 SWAP2 MSTORE SWAP2 ADD DUP2 SWAP1 MSTORE SWAP2 MSTORE DUP3 MLOAD DUP4 SWAP2 SWAP1 PUSH2 0x141 JUMPI PUSH2 0x141 PUSH2 0x568 JUMP JUMPDEST PUSH1 0x20 SWAP1 DUP2 MUL SWAP2 SWAP1 SWAP2 ADD DUP2 ADD SWAP2 SWAP1 SWAP2 MSTORE PUSH1 0x40 DUP1 MLOAD PUSH1 0x60 DUP1 DUP3 ADD DUP4 MSTORE PUSH1 0x0 DUP1 DUP4 MSTORE CALLER DUP4 DUP7 ADD DUP2 SWAP1 MSTORE PUSH3 0x76A700 DUP5 DUP7 ADD MSTORE DUP5 MLOAD PUSH2 0x120 DUP2 ADD DUP7 MSTORE DUP13 DUP2 MSTORE SWAP6 DUP7 ADD DUP12 SWAP1 MSTORE DUP6 DUP6 ADD MSTORE SWAP1 DUP5 ADD DUP8 SWAP1 MSTORE PUSH1 0x80 DUP5 ADD DUP2 SWAP1 MSTORE PUSH1 0xA0 DUP5 ADD DUP2 SWAP1 MSTORE PUSH1 0xC0 DUP5 ADD DUP2 SWAP1 MSTORE PUSH1 0xE0 DUP5 ADD DUP6 SWAP1 MSTORE PUSH2 0x100 DUP5 ADD DUP3 SWAP1 MSTORE SWAP2 MLOAD SWAP1 SWAP3 SWAP2 SWAP1 PUSH4 0x64EF9EC5 PUSH1 0xE0 SHL SWAP1 PUSH2 0x1D1 SWAP1 DUP5 SWAP1 DUP11 SWAP1 PUSH1 0x8 SWAP1 PUSH1 0x24 ADD PUSH2 0x699 JUMP JUMPDEST PUSH1 0x40 MLOAD PUSH1 0x20 DUP2 DUP4 SUB SUB DUP2 MSTORE SWAP1 PUSH1 0x40 MSTORE SWAP1 PUSH1 0x1 PUSH1 0x1 PUSH1 0xE0 SHL SUB NOT AND PUSH1 0x20 DUP3 ADD DUP1 MLOAD PUSH1 0x1 PUSH1 0x1 PUSH1 0xE0 SHL SUB DUP4 DUP2 DUP4 AND OR DUP4 MSTORE POP POP POP POP SWAP1 POP PUSH1 0x0 DUP1 PUSH2 0x167 PUSH1 0x1 PUSH1 0x1 PUSH1 0xA0 SHL SUB AND DUP4 PUSH1 0x40 MLOAD PUSH2 0x223 SWAP2 SWAP1 PUSH2 0x7C3 JUMP JUMPDEST PUSH1 0x0 PUSH1 0x40 MLOAD DUP1 DUP4 SUB DUP2 DUP6 GAS DELEGATECALL SWAP2 POP POP RETURNDATASIZE DUP1 PUSH1 0x0 DUP2 EQ PUSH2 0x25E JUMPI PUSH1 0x40 MLOAD SWAP2 POP PUSH1 0x1F NOT PUSH1 0x3F RETURNDATASIZE ADD AND DUP3 ADD PUSH1 0x40 MSTORE RETURNDATASIZE DUP3 MSTORE RETURNDATASIZE PUSH1 0x0 PUSH1 0x20 DUP5 ADD RETURNDATACOPY PUSH2 0x263 JUMP JUMPDEST PUSH1 0x60 SWAP2 POP JUMPDEST POP SWAP2 POP SWAP2 POP DUP2 PUSH2 0x2BA JUMPI PUSH1 0x40 MLOAD PUSH3 0x461BCD PUSH1 0xE5 SHL DUP2 MSTORE PUSH1 0x20 PUSH1 0x4 DUP3 ADD MSTORE PUSH1 0x1A PUSH1 0x24 DUP3 ADD MSTORE PUSH32 0x44656C656761746563616C6C20746F20485453206661696C6564000000000000 PUSH1 0x44 DUP3 ADD MSTORE PUSH1 0x64 ADD JUMPDEST PUSH1 0x40 MLOAD DUP1 SWAP2 SUB SWAP1 REVERT JUMPDEST PUSH1 0x0 DUP1 DUP3 DUP1 PUSH1 0x20 ADD SWAP1 MLOAD DUP2 ADD SWAP1 PUSH2 0x2D1 SWAP2 SWAP1 PUSH2 0x7DF JUMP JUMPDEST PUSH1 0x40 MLOAD PUSH1 0x7 DUP4 SWAP1 SIGNEXTEND DUP2 MSTORE SWAP2 SWAP4 POP SWAP2 POP PUSH32 0x65F0FF6F6F8CC1B3AC8AE3D76DA2A0AD35A52C26F3991C177B74CCDC87080F5F SWAP1 PUSH1 0x20 ADD PUSH1 0x40 MLOAD DUP1 SWAP2 SUB SWAP1 LOG1 DUP2 PUSH1 0x7 SIGNEXTEND PUSH1 0x16 EQ PUSH2 0x360 JUMPI PUSH1 0x40 MLOAD PUSH3 0x461BCD PUSH1 0xE5 SHL DUP2 MSTORE PUSH1 0x20 PUSH1 0x4 DUP3 ADD MSTORE PUSH1 0x1E PUSH1 0x24 DUP3 ADD MSTORE PUSH32 0x48545320507265636F6D70696C6520526573706F6E7365204661696C65640000 PUSH1 0x44 DUP3 ADD MSTORE PUSH1 0x64 ADD PUSH2 0x2B1 JUMP JUMPDEST CALLER PUSH1 0x1 PUSH1 0x1 PUSH1 0xA0 SHL SUB AND PUSH32 0xD7CBED4CCC2D30F2567AF3BF682D3F2A07E5855C61C27EE2211330951EC4196B DUP3 DUP16 DUP16 DUP15 PUSH1 0x40 MLOAD PUSH2 0x39F SWAP5 SWAP4 SWAP3 SWAP2 SWAP1 PUSH2 0x825 JUMP JUMPDEST PUSH1 0x40 MLOAD DUP1 SWAP2 SUB SWAP1 LOG2 SWAP8 POP POP POP POP POP POP POP POP JUMPDEST SWAP5 SWAP4 POP POP POP POP JUMP JUMPDEST PUSH1 0x40 MLOAD DUP1 PUSH1 0x40 ADD PUSH1 0x40 MSTORE DUP1 PUSH1 0x0 DUP2 MSTORE PUSH1 0x20 ADD PUSH2 0x411 PUSH1 0x40 MLOAD DUP1 PUSH1 0xA0 ADD PUSH1 0x40 MSTORE DUP1 PUSH1 0x0 ISZERO ISZERO DUP2 MSTORE PUSH1 0x20 ADD PUSH1 0x0 PUSH1 0x1 PUSH1 0x1 PUSH1 0xA0 SHL SUB AND DUP2 MSTORE PUSH1 0x20 ADD PUSH1 0x60 DUP2 MSTORE PUSH1 0x20 ADD PUSH1 0x60 DUP2 MSTORE PUSH1 0x20 ADD PUSH1 0x0 PUSH1 0x1 PUSH1 0x1 PUSH1 0xA0 SHL SUB AND DUP2 MSTORE POP SWAP1 JUMP JUMPDEST SWAP1 MSTORE SWAP1 JUMP JUMPDEST PUSH4 0x4E487B71 PUSH1 0xE0 SHL PUSH1 0x0 MSTORE PUSH1 0x41 PUSH1 0x4 MSTORE PUSH1 0x24 PUSH1 0x0 REVERT JUMPDEST PUSH1 0x0 DUP3 PUSH1 0x1F DUP4 ADD SLT PUSH2 0x43D JUMPI PUSH1 0x0 DUP1 REVERT JUMPDEST DUP2 CALLDATALOAD PUSH8 0xFFFFFFFFFFFFFFFF DUP1 DUP3 GT ISZERO PUSH2 0x458 JUMPI PUSH2 0x458 PUSH2 0x416 JUMP JUMPDEST PUSH1 0x40 MLOAD PUSH1 0x1F DUP4 ADD PUSH1 0x1F NOT SWAP1 DUP2 AND PUSH1 0x3F ADD AND DUP2 ADD SWAP1 DUP3 DUP3 GT DUP2 DUP4 LT OR ISZERO PUSH2 0x480 JUMPI PUSH2 0x480 PUSH2 0x416 JUMP JUMPDEST DUP2 PUSH1 0x40 MSTORE DUP4 DUP2 MSTORE DUP7 PUSH1 0x20 DUP6 DUP9 ADD ADD GT ISZERO PUSH2 0x499 JUMPI PUSH1 0x0 DUP1 REVERT JUMPDEST DUP4 PUSH1 0x20 DUP8 ADD PUSH1 0x20 DUP4 ADD CALLDATACOPY PUSH1 0x0 PUSH1 0x20 DUP6 DUP4 ADD ADD MSTORE DUP1 SWAP5 POP POP POP POP POP SWAP3 SWAP2 POP POP JUMP JUMPDEST DUP1 PUSH1 0x7 SIGNEXTEND DUP2 EQ PUSH2 0x4C8 JUMPI PUSH1 0x0 DUP1 REVERT JUMPDEST POP JUMP JUMPDEST PUSH1 0x0 DUP1 PUSH1 0x0 DUP1 PUSH1 0x80 DUP6 DUP8 SUB SLT ISZERO PUSH2 0x4E1 JUMPI PUSH1 0x0 DUP1 REVERT JUMPDEST DUP5 CALLDATALOAD PUSH8 0xFFFFFFFFFFFFFFFF DUP1 DUP3 GT ISZERO PUSH2 0x4F9 JUMPI PUSH1 0x0 DUP1 REVERT JUMPDEST PUSH2 0x505 DUP9 DUP4 DUP10 ADD PUSH2 0x42C JUMP JUMPDEST SWAP6 POP PUSH1 0x20 DUP8 ADD CALLDATALOAD SWAP2 POP DUP1 DUP3 GT ISZERO PUSH2 0x51B JUMPI PUSH1 0x0 DUP1 REVERT JUMPDEST PUSH2 0x527 DUP9 DUP4 DUP10 ADD PUSH2 0x42C JUMP JUMPDEST SWAP5 POP PUSH1 0x40 DUP8 ADD CALLDATALOAD SWAP2 POP PUSH2 0x539 DUP3 PUSH2 0x4B9 JUMP JUMPDEST SWAP1 SWAP3 POP PUSH1 0x60 DUP7 ADD CALLDATALOAD SWAP1 DUP1 DUP3 GT ISZERO PUSH2 0x54F JUMPI PUSH1 0x0 DUP1 REVERT JUMPDEST POP PUSH2 0x55C DUP8 DUP3 DUP9 ADD PUSH2 0x42C JUMP JUMPDEST SWAP2 POP POP SWAP3 SWAP6 SWAP2 SWAP5 POP SWAP3 POP JUMP JUMPDEST PUSH4 0x4E487B71 PUSH1 0xE0 SHL PUSH1 0x0 MSTORE PUSH1 0x32 PUSH1 0x4 MSTORE PUSH1 0x24 PUSH1 0x0 REVERT JUMPDEST PUSH1 0x0 JUMPDEST DUP4 DUP2 LT ISZERO PUSH2 0x599 JUMPI DUP2 DUP2 ADD MLOAD DUP4 DUP3 ADD MSTORE PUSH1 0x20 ADD PUSH2 0x581 JUMP JUMPDEST POP POP PUSH1 0x0 SWAP2 ADD MSTORE JUMP JUMPDEST PUSH1 0x0 DUP2 MLOAD DUP1 DUP5 MSTORE PUSH2 0x5BA DUP2 PUSH1 0x20 DUP7 ADD PUSH1 0x20 DUP7 ADD PUSH2 0x57E JUMP JUMPDEST PUSH1 0x1F ADD PUSH1 0x1F NOT AND SWAP3 SWAP1 SWAP3 ADD PUSH1 0x20 ADD SWAP3 SWAP2 POP POP JUMP JUMPDEST PUSH1 0x0 DUP3 DUP3 MLOAD DUP1 DUP6 MSTORE PUSH1 0x20 DUP1 DUP7 ADD SWAP6 POP DUP1 DUP3 PUSH1 0x5 SHL DUP5 ADD ADD DUP2 DUP7 ADD PUSH1 0x0 JUMPDEST DUP5 DUP2 LT ISZERO PUSH2 0x68C JUMPI DUP6 DUP4 SUB PUSH1 0x1F NOT ADD DUP10 MSTORE DUP2 MLOAD DUP1 MLOAD DUP5 MSTORE DUP5 ADD MLOAD PUSH1 0x40 DUP6 DUP6 ADD DUP2 SWAP1 MSTORE DUP2 MLOAD ISZERO ISZERO DUP2 DUP7 ADD MSTORE DUP2 DUP7 ADD MLOAD PUSH1 0x1 PUSH1 0x1 PUSH1 0xA0 SHL SUB SWAP1 DUP2 AND PUSH1 0x60 DUP1 DUP9 ADD SWAP2 SWAP1 SWAP2 MSTORE SWAP2 DUP4 ADD MLOAD PUSH1 0xA0 PUSH1 0x80 DUP1 DUP10 ADD DUP3 SWAP1 MSTORE SWAP2 SWAP4 SWAP1 SWAP3 SWAP1 SWAP2 PUSH2 0x64E PUSH1 0xE0 DUP11 ADD DUP7 PUSH2 0x5A2 JUMP JUMPDEST SWAP3 DUP7 ADD MLOAD DUP10 DUP5 SUB PUSH1 0x3F NOT ADD DUP6 DUP12 ADD MSTORE SWAP3 SWAP5 POP PUSH2 0x66A DUP6 DUP5 PUSH2 0x5A2 JUMP JUMPDEST SWAP6 ADD MLOAD AND PUSH1 0xC0 SWAP8 SWAP1 SWAP8 ADD SWAP7 SWAP1 SWAP7 MSTORE POP POP SWAP9 DUP5 ADD SWAP9 SWAP3 POP SWAP1 DUP4 ADD SWAP1 PUSH1 0x1 ADD PUSH2 0x5EB JUMP JUMPDEST POP SWAP1 SWAP8 SWAP7 POP POP POP POP POP POP POP JUMP JUMPDEST PUSH1 0x60 DUP2 MSTORE PUSH1 0x0 DUP5 MLOAD PUSH2 0x160 DUP1 PUSH1 0x60 DUP6 ADD MSTORE PUSH2 0x6B8 PUSH2 0x1C0 DUP6 ADD DUP4 PUSH2 0x5A2 JUMP JUMPDEST SWAP2 POP PUSH1 0x20 DUP8 ADD MLOAD PUSH1 0x5F NOT DUP1 DUP7 DUP6 SUB ADD PUSH1 0x80 DUP8 ADD MSTORE PUSH2 0x6D6 DUP5 DUP4 PUSH2 0x5A2 JUMP JUMPDEST SWAP4 POP PUSH1 0x40 DUP10 ADD MLOAD SWAP2 POP PUSH2 0x6F4 PUSH1 0xA0 DUP8 ADD DUP4 PUSH1 0x1 PUSH1 0x1 PUSH1 0xA0 SHL SUB AND SWAP1 MSTORE JUMP JUMPDEST PUSH1 0x60 DUP10 ADD MLOAD SWAP2 POP DUP1 DUP7 DUP6 SUB ADD PUSH1 0xC0 DUP8 ADD MSTORE PUSH2 0x70F DUP5 DUP4 PUSH2 0x5A2 JUMP JUMPDEST SWAP4 POP PUSH1 0x80 DUP10 ADD MLOAD SWAP2 POP PUSH2 0x726 PUSH1 0xE0 DUP8 ADD DUP4 ISZERO ISZERO SWAP1 MSTORE JUMP JUMPDEST PUSH1 0xA0 DUP10 ADD MLOAD SWAP2 POP PUSH2 0x100 PUSH2 0x741 DUP2 DUP9 ADD DUP5 PUSH4 0xFFFFFFFF AND SWAP1 MSTORE JUMP JUMPDEST PUSH1 0xC0 DUP11 ADD MLOAD ISZERO ISZERO PUSH2 0x120 DUP9 ADD MSTORE PUSH1 0xE0 DUP11 ADD MLOAD DUP8 DUP7 SUB DUP4 ADD PUSH2 0x140 DUP10 ADD MSTORE SWAP3 POP PUSH2 0x76A DUP6 DUP5 PUSH2 0x5CE JUMP JUMPDEST SWAP5 POP DUP1 DUP11 ADD MLOAD SWAP3 POP POP POP PUSH2 0x7A6 DUP3 DUP7 ADD DUP3 DUP1 MLOAD PUSH4 0xFFFFFFFF SWAP1 DUP2 AND DUP4 MSTORE PUSH1 0x20 DUP1 DUP4 ADD MLOAD PUSH1 0x1 PUSH1 0x1 PUSH1 0xA0 SHL SUB AND SWAP1 DUP5 ADD MSTORE PUSH1 0x40 SWAP2 DUP3 ADD MLOAD AND SWAP2 ADD MSTORE JUMP JUMPDEST POP POP PUSH1 0x7 DUP6 SWAP1 SIGNEXTEND PUSH1 0x20 DUP5 ADD MSTORE SWAP1 POP PUSH2 0x3B1 PUSH1 0x40 DUP4 ADD DUP5 PUSH1 0x3 SIGNEXTEND SWAP1 MSTORE JUMP JUMPDEST PUSH1 0x0 DUP3 MLOAD PUSH2 0x7D5 DUP2 DUP5 PUSH1 0x20 DUP8 ADD PUSH2 0x57E JUMP JUMPDEST SWAP2 SWAP1 SWAP2 ADD SWAP3 SWAP2 POP POP JUMP JUMPDEST PUSH1 0x0 DUP1 PUSH1 0x40 DUP4 DUP6 SUB SLT ISZERO PUSH2 0x7F2 JUMPI PUSH1 0x0 DUP1 REVERT JUMPDEST DUP3 MLOAD PUSH2 0x7FD DUP2 PUSH2 0x4B9 JUMP JUMPDEST PUSH1 0x20 DUP5 ADD MLOAD SWAP1 SWAP3 POP PUSH1 0x1 PUSH1 0x1 PUSH1 0xA0 SHL SUB DUP2 AND DUP2 EQ PUSH2 0x81A JUMPI PUSH1 0x0 DUP1 REVERT JUMPDEST DUP1 SWAP2 POP POP SWAP3 POP SWAP3 SWAP1 POP JUMP JUMPDEST PUSH1 0x1 PUSH1 0x1 PUSH1 0xA0 SHL SUB DUP6 AND DUP2 MSTORE PUSH1 0x80 PUSH1 0x20 DUP3 ADD DUP2 SWAP1 MSTORE PUSH1 0x0 SWAP1 PUSH2 0x849 SWAP1 DUP4 ADD DUP7 PUSH2 0x5A2 JUMP JUMPDEST DUP3 DUP2 SUB PUSH1 0x40 DUP5 ADD MSTORE PUSH2 0x85B DUP2 DUP7 PUSH2 0x5A2 JUMP JUMPDEST SWAP1 POP DUP3 DUP2 SUB PUSH1 0x60 DUP5 ADD MSTORE PUSH2 0x86F DUP2 DUP6 PUSH2 0x5A2 JUMP JUMPDEST SWAP8 SWAP7 POP POP POP POP POP POP POP JUMP INVALID LOG2 PUSH5 0x6970667358 0x22 SLT KECCAK256 RETURNDATASIZE 0xAB 0x23 0xB1 0xE7 NUMBER CALLDATACOPY CALLCODE 0x23 CALLDATASIZE 0x2F TIMESTAMP SWAP16 0xCD SWAP16 SWAP3 COINBASE KECCAK256 0xD7 PUSH2 0xFD11 0xEC LT 0xFB EXP PUSH15 0xD1113BE1F264736F6C634300081400 CALLER "},"methodIdentifiers":{"createMemeToken(string,string,int64,string)":"e88b3cdf"}}}}}