{
  "_format": "hh-sol-artifact-1",
  "contractName": "MemeFactoryHTS",
  "sourceName": "contracts/MemeFactoryHTS.sol",
  "abi": [
    {
      "anonymous": false,
      "inputs": [
        {
          "indexed": true,
          "internalType": "address",
          "name": "creator",
          "type": "address"
        },
        {
          "indexed": false,
          "internalType": "address",
          "name": "tokenAddress",
          "type": "address"
        },
        {
          "indexed": false,
          "internalType": "string",
          "name": "name",
          "type": "string"
        },
        {
          "indexed": false,
          "internalType": "string",
          "name": "symbol",
          "type": "string"
        },
        {
          "indexed": false,
          "internalType": "string",
          "name": "imageUrl",
          "type": "string"
        }
      ],
      "name": "MemeLaunched",
      "type": "event"
    },
    {
      "inputs": [
        {
          "internalType": "string",
          "name": "name",
          "type": "string"
        },
        {
          "internalType": "string",
          "name": "symbol",
          "type": "string"
        },
        {
          "internalType": "int64",
          "name": "initialSupply",
          "type": "int64"
        },
        {
          "internalType": "string",
          "name": "imageUrl",
          "type": "string"
        }
      ],
      "name": "createMemeToken",
      "outputs": [
        {
          "internalType": "address",
          "name": "",
          "type": "address"
        }
      ],
      "stateMutability": "nonpayable",
      "type": "function"
    },
    {
      "stateMutability": "payable",
      "type": "receive"
    }
  ],
  "bytecode": "0x608060405234801561001057600080fd5b506107af806100206000396000f3fe6080604052600436106100225760003560e01c8063e88b3cdf1461002e57600080fd5b3661002957005b600080fd5b34801561003a57600080fd5b5061004e6100493660046103f0565b61006a565b6040516001600160a01b03909116815260200160405180910390f35b604080516001808252818301909252600091829190816020015b61008c6102de565b8152602001906001900390816100845790505090506040518060400160405280600181526020016040518060a00160405280600015158152602001306001600160a01b03168152602001600067ffffffffffffffff8111156100f0576100f061033b565b6040519080825280601f01601f19166020018201604052801561011a576020820181803683370190505b5081526040805160008082526020808301845284019190915291018190529152825183919061014b5761014b61048d565b60209081029190910181019190915260408051606080820183526000808352308386018190526276a700848601528451610120810186528c81529586018b9052858501529084018790526080840181905260a0840181905260c0840181905260e08401859052610100840182905291516364ef9ec560e01b8152909291908190610167906364ef9ec59068022b1c8c1227a00000906101f39087908d906008906004016105b4565b604080518083038185885af1158015610210573d6000803e3d6000fd5b50505050506040513d601f19601f8201168201806040525081019061023591906106de565b915091508160070b6016146102885760405162461bcd60e51b8152602060048201526015602482015274121514c8141c9958dbdb5c1a5b194811985a5b1959605a1b604482015260640160405180910390fd5b336001600160a01b03167fd7cbed4ccc2d30f2567af3bf682d3f2a07e5855c61c27ee2211330951ec4196b828c8c8b6040516102c79493929190610724565b60405180910390a29450505050505b949350505050565b6040518060400160405280600081526020016103366040518060a0016040528060001515815260200160006001600160a01b03168152602001606081526020016060815260200160006001600160a01b031681525090565b905290565b634e487b7160e01b600052604160045260246000fd5b600082601f83011261036257600080fd5b813567ffffffffffffffff8082111561037d5761037d61033b565b604051601f8301601f19908116603f011681019082821181831017156103a5576103a561033b565b816040528381528660208588010111156103be57600080fd5b836020870160208301376000602085830101528094505050505092915050565b8060070b81146103ed57600080fd5b50565b6000806000806080858703121561040657600080fd5b843567ffffffffffffffff8082111561041e57600080fd5b61042a88838901610351565b9550602087013591508082111561044057600080fd5b61044c88838901610351565b94506040870135915061045e826103de565b9092506060860135908082111561047457600080fd5b5061048187828801610351565b91505092959194509250565b634e487b7160e01b600052603260045260246000fd5b6000815180845260005b818110156104c9576020818501810151868301820152016104ad565b506000602082860101526020601f19601f83011685010191505092915050565b600082825180855260208086019550808260051b84010181860160005b848110156105a757858303601f1901895281518051845284015160408585018190528151151581860152818601516001600160a01b039081166060808801919091529183015160a0608080890182905291939092909161056960e08a01866104a3565b92860151898403603f1901858b015292945061058585846104a3565b9501511660c09790970196909652505098840198925090830190600101610506565b5090979650505050505050565b60608152600084516101608060608501526105d36101c08501836104a3565b91506020870151605f19808685030160808701526105f184836104a3565b93506040890151915061060f60a08701836001600160a01b03169052565b60608901519150808685030160c087015261062a84836104a3565b93506080890151915061064160e087018315159052565b60a0890151915061010061065c8188018463ffffffff169052565b60c08a0151151561012088015260e08a01518786038301610140890152925061068585846104e9565b9450808a0151925050506106c182860182805163ffffffff90811683526020808301516001600160a01b03169084015260409182015116910152565b5050600785900b602084015290506102d6604083018460030b9052565b600080604083850312156106f157600080fd5b82516106fc816103de565b60208401519092506001600160a01b038116811461071957600080fd5b809150509250929050565b6001600160a01b0385168152608060208201819052600090610748908301866104a3565b828103604084015261075a81866104a3565b9050828103606084015261076e81856104a3565b97965050505050505056fea264697066735822122072771f6bd7224b50e77e9887095b6f0450ad1a9079db77d2bc1ef3c1f145780764736f6c63430008140033",
  "linkReferences": {},
  "deployedLinkReferences": {}
}