{
  "_format": "hh-sol-artifact-1",
  "contractName": "LiquidityPoolHTS",
  "sourceName": "contracts/LiquidityPoolHTS.sol",
  "abi": [
    {
      "inputs": [
        {
          "internalType": "address",
          "name": "_token",
          "type": "address"
        }
      ],
      "stateMutability": "nonpayable",
      "type": "constructor"
    },
    {
      "anonymous": false,
      "inputs": [
        {
          "indexed": true,
          "internalType": "address",
          "name": "sender",
          "type": "address"
        },
        {
          "indexed": false,
          "internalType": "uint256",
          "name": "hbarIn",
          "type": "uint256"
        },
        {
          "indexed": false,
          "internalType": "uint256",
          "name": "tokenIn",
          "type": "uint256"
        },
        {
          "indexed": false,
          "internalType": "uint256",
          "name": "hbarOut",
          "type": "uint256"
        },
        {
          "indexed": false,
          "internalType": "uint256",
          "name": "tokenOut",
          "type": "uint256"
        }
      ],
      "name": "Swap",
      "type": "event"
    },
    {
      "inputs": [],
      "name": "BONDING_CURVE_TARGET",
      "outputs": [
        {
          "internalType": "uint256",
          "name": "",
          "type": "uint256"
        }
      ],
      "stateMutability": "view",
      "type": "function"
    },
    {
      "inputs": [],
      "name": "FEE_RATE",
      "outputs": [
        {
          "internalType": "uint256",
          "name": "",
          "type": "uint256"
        }
      ],
      "stateMutability": "view",
      "type": "function"
    },
    {
      "inputs": [],
      "name": "FEE_RECEIVER",
      "outputs": [
        {
          "internalType": "address",
          "name": "",
          "type": "address"
        }
      ],
      "stateMutability": "view",
      "type": "function"
    },
    {
      "inputs": [],
      "name": "MAX_LAUNCH_BUY",
      "outputs": [
        {
          "internalType": "uint256",
          "name": "",
          "type": "uint256"
        }
      ],
      "stateMutability": "view",
      "type": "function"
    },
    {
      "inputs": [
        {
          "internalType": "uint256",
          "name": "minTokensOut",
          "type": "uint256"
        },
        {
          "internalType": "address",
          "name": "receiver",
          "type": "address"
        },
        {
          "internalType": "address payable",
          "name": "referrer",
          "type": "address"
        }
      ],
      "name": "buyTokens",
      "outputs": [],
      "stateMutability": "payable",
      "type": "function"
    },
    {
      "inputs": [],
      "name": "factoryAddress",
      "outputs": [
        {
          "internalType": "address",
          "name": "",
          "type": "address"
        }
      ],
      "stateMutability": "view",
      "type": "function"
    },
    {
      "inputs": [],
      "name": "reserveHbar",
      "outputs": [
        {
          "internalType": "uint256",
          "name": "",
          "type": "uint256"
        }
      ],
      "stateMutability": "view",
      "type": "function"
    },
    {
      "inputs": [],
      "name": "reserveToken",
      "outputs": [
        {
          "internalType": "uint256",
          "name": "",
          "type": "uint256"
        }
      ],
      "stateMutability": "view",
      "type": "function"
    },
    {
      "inputs": [
        {
          "internalType": "uint256",
          "name": "tokensIn",
          "type": "uint256"
        },
        {
          "internalType": "uint256",
          "name": "minHbarOut",
          "type": "uint256"
        },
        {
          "internalType": "address payable",
          "name": "referrer",
          "type": "address"
        }
      ],
      "name": "sellTokens",
      "outputs": [],
      "stateMutability": "nonpayable",
      "type": "function"
    },
    {
      "inputs": [],
      "name": "sync",
      "outputs": [],
      "stateMutability": "nonpayable",
      "type": "function"
    },
    {
      "inputs": [],
      "name": "tokenAddress",
      "outputs": [
        {
          "internalType": "address",
          "name": "",
          "type": "address"
        }
      ],
      "stateMutability": "view",
      "type": "function"
    },
    {
      "stateMutability": "payable",
      "type": "receive"
    }
  ],
  "bytecode": "0x608060405234801561001057600080fd5b50604051610c78380380610c7883398101604081905261002f91610196565b600080546001600160a01b0383166001600160a01b031991821617825560018054909116331781556040805182815280820190915290602080830190803683370190505090508181600081518110610089576100896101c6565b6001600160a01b039092166020928302919091019091015260405160009061016790632e63879b60e01b906100c490309086906024016101dc565b60408051601f198184030181529181526020820180516001600160e01b03166001600160e01b03199094169390931790925290516101029190610238565b6000604051808303816000865af19150503d806000811461013f576040519150601f19603f3d011682016040523d82523d6000602084013e610144565b606091505b505090508061018e5760405162461bcd60e51b8152602060048201526012602482015271105cdcdbd8da585d1a5bdb8819985a5b195960721b604482015260640160405180910390fd5b505050610267565b6000602082840312156101a857600080fd5b81516001600160a01b03811681146101bf57600080fd5b9392505050565b634e487b7160e01b600052603260045260246000fd5b6001600160a01b038381168252604060208084018290528451918401829052600092858201929091906060860190855b8181101561022a57855185168352948301949183019160010161020c565b509098975050505050505050565b6000825160005b81811015610259576020818601810151858301520161023f565b506000920191825250919050565b610a02806102766000396000f3fe6080604052600436106100a05760003560e01c8063ba12d50511610064578063ba12d5051461015f578063c41596d31461017b578063d3e78e4d14610191578063ef569f9a146101a6578063f4325d67146101c6578063fff6cae9146101dc57600080fd5b806305848998146100ac5780632d11c58a146100dd578063966dae0e146100f25780639d76ea581461012a578063adc42f291461014a57600080fd5b366100a757005b600080fd5b3480156100b857600080fd5b506100ca69152d02c7e14af680000081565b6040519081526020015b60405180910390f35b3480156100e957600080fd5b506100ca600181565b3480156100fe57600080fd5b50600154610112906001600160a01b031681565b6040516001600160a01b0390911681526020016100d4565b34801561013657600080fd5b50600054610112906001600160a01b031681565b61015d61015836600461089f565b6101f1565b005b34801561016b57600080fd5b506100ca6729a2241af62c000081565b34801561018757600080fd5b506100ca60025481565b34801561019d57600080fd5b50610112600081565b3480156101b257600080fd5b5061015d6101c13660046108e1565b610547565b3480156101d257600080fd5b506100ca60035481565b3480156101e857600080fd5b5061015d610812565b600034116102375760405162461bcd60e51b815260206004820152600e60248201526d26bab9ba1039b2b73210242120a960911b60448201526064015b60405180910390fd5b69152d02c7e14af680000060025410156102b9576729a2241af62c00003411156102b95760405162461bcd60e51b815260206004820152602d60248201527f45786365656473206d617820627579206c696d6974206f66203320484241522060448201526c0c8eae4d2dcce40d8c2eadcc6d609b1b606482015260840161022e565b34600060646102c9600184610925565b6102d39190610942565b905060006102e18284610964565b90506000816002546102f39190610977565b826003546103019190610925565b61030b9190610942565b90508681101561035d5760405162461bcd60e51b815260206004820152601b60248201527f536c69707061676520746f6c6572616e63652065786365656465640000000000604482015260640161022e565b60006001600160a01b038616156103955761271061037c866014610925565b6103869190610942565b90506103928185610964565b93505b84600260008282546103a79190610977565b9250508190555081600360008282546103c09190610964565b909155505083158015906103d2575060005b1561041d5760405160009085156108fc0290869083818181858288f19350505050158015610404573d6000803e3d6000fd5b5083600260008282546104179190610964565b90915550505b8015610472576040516001600160a01b0387169082156108fc029083906000818181858888f19350505050158015610459573d6000803e3d6000fd5b50806002600082825461046c9190610964565b90915550505b60005460405163a9059cbb60e01b81526001600160a01b038981166004830152602482018590529091169063a9059cbb906044016020604051808303816000875af11580156104c5573d6000803e3d6000fd5b505050506040513d601f19601f820116820180604052508101906104e9919061098a565b5060408051868152600060208201819052818301526060810184905290516001600160a01b038916917f49926bbebe8474393f434dfa4f78694c0923efa07d19f2284518bfabd06eb737919081900360800190a25050505050505050565b6000831161058a5760405162461bcd60e51b815260206004820152601060248201526f4d7573742073656e6420746f6b656e7360801b604482015260640161022e565b60008360035461059a9190610977565b846002546105a89190610925565b6105b29190610942565b9050600060646105c3600184610925565b6105cd9190610942565b905060006105db8284610964565b90508481101561062d5760405162461bcd60e51b815260206004820152601b60248201527f536c69707061676520746f6c6572616e63652065786365656465640000000000604482015260640161022e565b60006001600160a01b038516156106655761271061064c856014610925565b6106569190610942565b90506106628184610964565b92505b6000546040516323b872dd60e01b8152336004820152306024820152604481018990526001600160a01b03909116906323b872dd906064016020604051808303816000875af11580156106bc573d6000803e3d6000fd5b505050506040513d601f19601f820116820180604052508101906106e0919061098a565b5086600360008282546106f39190610977565b92505081905550836002600082825461070c9190610964565b9091555050604051339083156108fc029084906000818181858888f1935050505015801561073e573d6000803e3d6000fd5b5060008311801561074d575060005b156107815760405160009084156108fc0290859083818181858288f1935050505015801561077f573d6000803e3d6000fd5b505b80156107bf576040516001600160a01b0386169082156108fc029083906000818181858888f193505050501580156107bd573d6000803e3d6000fd5b505b604080516000808252602082018a90528183018590526060820152905133917f49926bbebe8474393f434dfa4f78694c0923efa07d19f2284518bfabd06eb737919081900360800190a250505050505050565b476002556000546040516370a0823160e01b81523060048201526001600160a01b03909116906370a0823190602401602060405180830381865afa15801561085e573d6000803e3d6000fd5b505050506040513d601f19601f8201168201806040525081019061088291906109b3565b600355565b6001600160a01b038116811461089c57600080fd5b50565b6000806000606084860312156108b457600080fd5b8335925060208401356108c681610887565b915060408401356108d681610887565b809150509250925092565b6000806000606084860312156108f657600080fd5b833592506020840135915060408401356108d681610887565b634e487b7160e01b600052601160045260246000fd5b808202811582820484141761093c5761093c61090f565b92915050565b60008261095f57634e487b7160e01b600052601260045260246000fd5b500490565b8181038181111561093c5761093c61090f565b8082018082111561093c5761093c61090f565b60006020828403121561099c57600080fd5b815180151581146109ac57600080fd5b9392505050565b6000602082840312156109c557600080fd5b505191905056fea264697066735822122089baacbd1a5839c9bd3dc7bac1ea9d36c1855ed310fe6c37aad67f8eb3b7f55a64736f6c63430008140033",
  "linkReferences": {},
  "deployedLinkReferences": {}
}