{
  "_format": "hh-sol-artifact-1",
  "contractName": "MemeFactory",
  "sourceName": "contracts/MemeFactoryV2.sol",
  "abi": [
    {
      "inputs": [
        {
          "internalType": "address",
          "name": "_treasury",
          "type": "address"
        }
      ],
      "stateMutability": "nonpayable",
      "type": "constructor"
    },
    {
      "anonymous": false,
      "inputs": [
        {
          "indexed": false,
          "internalType": "int64",
          "name": "responseCode",
          "type": "int64"
        }
      ],
      "name": "DebugResponse",
      "type": "event"
    },
    {
      "anonymous": false,
      "inputs": [
        {
          "indexed": true,
          "internalType": "address",
          "name": "creator",
          "type": "address"
        },
        {
          "indexed": false,
          "internalType": "address",
          "name": "tokenAddress",
          "type": "address"
        },
        {
          "indexed": false,
          "internalType": "string",
          "name": "name",
          "type": "string"
        },
        {
          "indexed": false,
          "internalType": "string",
          "name": "symbol",
          "type": "string"
        },
        {
          "indexed": false,
          "internalType": "string",
          "name": "imageUrl",
          "type": "string"
        }
      ],
      "name": "MemeLaunched",
      "type": "event"
    },
    {
      "stateMutability": "payable",
      "type": "fallback"
    },
    {
      "inputs": [
        {
          "internalType": "string",
          "name": "name",
          "type": "string"
        },
        {
          "internalType": "string",
          "name": "symbol",
          "type": "string"
        },
        {
          "internalType": "int64",
          "name": "initialSupply",
          "type": "int64"
        },
        {
          "internalType": "string",
          "name": "imageUrl",
          "type": "string"
        }
      ],
      "name": "createMemeToken",
      "outputs": [
        {
          "internalType": "address",
          "name": "",
          "type": "address"
        }
      ],
      "stateMutability": "payable",
      "type": "function"
    },
    {
      "inputs": [],
      "name": "treasury",
      "outputs": [
        {
          "internalType": "address",
          "name": "",
          "type": "address"
        }
      ],
      "stateMutability": "view",
      "type": "function"
    },
    {
      "stateMutability": "payable",
      "type": "receive"
    }
  ],
  "bytecode": "0x608060405234801561001057600080fd5b506040516109d53803806109d583398101604081905261002f91610054565b600080546001600160a01b0319166001600160a01b0392909216919091179055610084565b60006020828403121561006657600080fd5b81516001600160a01b038116811461007d57600080fd5b9392505050565b610942806100936000396000f3fe60806040526004361061002a5760003560e01c806361d027b314610033578063e88b3cdf1461006f57005b3661003157005b005b34801561003f57600080fd5b50600054610053906001600160a01b031681565b6040516001600160a01b03909116815260200160405180910390f35b61005361007d36600461055b565b604080516000808252602082019092528190816100b0565b61009d610449565b8152602001906001900390816100955790505b506040805160608082018352600080835260208084018290526276a700848601528451610120810186528c81529081018b905230948101949094529083018790526080830181905260a0830181905260c0830181905260e0830184905261010083018290529293509161013167ffffffffffffffff88166305f5e1006105f8565b90506000806101676001600160a01b0316637812a04b34868660086040518563ffffffff1660e01b815260040161016a9392919061072c565b604080518083038185885af1158015610187573d6000803e3d6000fd5b50505050506040513d601f19601f820116820180604052508101906101ac919061084d565b604051600783900b815291935091507f65f0ff6f6f8cc1b3ac8ae3d76da2a0ad35a52c26f3991c177b74ccdc87080f5f9060200160405180910390a18160070b6016146102385760405162461bcd60e51b8152602060048201526015602482015274121514c8141c9958dbdb5c1a5b194811985a5b1959605a1b60448201526064015b60405180910390fd5b60405163eca3691760e01b81526001600160a01b0382166004820152306024820152336044820152600784900b60648201526000906101679063eca36917906084016020604051808303816000875af1158015610299573d6000803e3d6000fd5b505050506040513d601f19601f820116820180604052508101906102bd9190610893565b90508060070b60161461032d5760405162461bcd60e51b815260206004820152603260248201527f546f6b656e205472616e73666572204661696c656420284e6f204175746f2d4160448201527173736f63696174696f6e20536c6f74733f2960701b606482015260840161022f565b336001600160a01b03167fd7cbed4ccc2d30f2567af3bf682d3f2a07e5855c61c27ee2211330951ec4196b838e8e8d60405161036c94939291906108b7565b60405180910390a247801580159061038e57506000546001600160a01b031615155b1561043857600080546040516001600160a01b039091169083908381818185875af1925050503d80600081146103e0576040519150601f19603f3d011682016040523d82523d6000602084013e6103e5565b606091505b50509050806104365760405162461bcd60e51b815260206004820152601860248201527f5472656173757279207472616e73666572206661696c65640000000000000000604482015260640161022f565b505b50909b9a5050505050505050505050565b6040518060400160405280600081526020016104a16040518060a0016040528060001515815260200160006001600160a01b03168152602001606081526020016060815260200160006001600160a01b031681525090565b905290565b634e487b7160e01b600052604160045260246000fd5b600082601f8301126104cd57600080fd5b813567ffffffffffffffff808211156104e8576104e86104a6565b604051601f8301601f19908116603f01168101908282118183101715610510576105106104a6565b8160405283815286602085880101111561052957600080fd5b836020870160208301376000602085830101528094505050505092915050565b8060070b811461055857600080fd5b50565b6000806000806080858703121561057157600080fd5b843567ffffffffffffffff8082111561058957600080fd5b610595888389016104bc565b955060208701359150808211156105ab57600080fd5b6105b7888389016104bc565b9450604087013591506105c982610549565b909250606086013590808211156105df57600080fd5b506105ec878288016104bc565b91505092959194509250565b808202811582820484141761061d57634e487b7160e01b600052601160045260246000fd5b92915050565b6000815180845260005b818110156106495760208185018101518683018201520161062d565b506000602082860101526020601f19601f83011685010191505092915050565b600081518084526020808501808196508360051b8101915082860160005b8581101561071f57828403895281516040815186528682015191508087870152815115158187015286820151606060018060a01b03808316828a015283850151935060a09250608083818b01526106e160e08b0186610623565b928601518a8403603f1901858c01529294506106fd8584610623565b9501511660c09890980197909752505098850198935090840190600101610687565b5091979650505050505050565b606081526000845161016080606085015261074b6101c0850183610623565b91506020870151605f19808685030160808701526107698483610623565b93506040890151915061078760a08701836001600160a01b03169052565b60608901519150808685030160c08701526107a28483610623565b9350608089015191506107b960e087018315159052565b60a089015191506101006107d48188018463ffffffff169052565b60c08a0151151561012088015260e08a0151878603830161014089015292506107fd8584610669565b9450808a01519250505061083982860182805163ffffffff90811683526020808301516001600160a01b03169084015260409182015116910152565b505060208301949094525060400152919050565b6000806040838503121561086057600080fd5b825161086b81610549565b60208401519092506001600160a01b038116811461088857600080fd5b809150509250929050565b6000602082840312156108a557600080fd5b81516108b081610549565b9392505050565b6001600160a01b03851681526080602082018190526000906108db90830186610623565b82810360408401526108ed8186610623565b905082810360608401526109018185610623565b97965050505050505056fea2646970667358221220db066426390f347a9c621cd58a4d0922de4422bb90e9d5d2a59e369c232a6c6364736f6c63430008140033",
  "linkReferences": {},
  "deployedLinkReferences": {}
}