{
  "_format": "hh-sol-artifact-1",
  "contractName": "MemeFactoryV3",
  "sourceName": "contracts/MemeFactoryV3.sol",
  "abi": [
    {
      "inputs": [
        {
          "internalType": "address",
          "name": "_treasury",
          "type": "address"
        }
      ],
      "stateMutability": "nonpayable",
      "type": "constructor"
    },
    {
      "anonymous": false,
      "inputs": [
        {
          "indexed": true,
          "internalType": "address",
          "name": "creator",
          "type": "address"
        },
        {
          "indexed": false,
          "internalType": "address",
          "name": "tokenAddress",
          "type": "address"
        },
        {
          "indexed": false,
          "internalType": "string",
          "name": "name",
          "type": "string"
        },
        {
          "indexed": false,
          "internalType": "string",
          "name": "symbol",
          "type": "string"
        },
        {
          "indexed": false,
          "internalType": "string",
          "name": "imageUrl",
          "type": "string"
        }
      ],
      "name": "MemeLaunched",
      "type": "event"
    },
    {
      "inputs": [
        {
          "internalType": "string",
          "name": "name",
          "type": "string"
        },
        {
          "internalType": "string",
          "name": "symbol",
          "type": "string"
        },
        {
          "internalType": "uint256",
          "name": "initialSupply",
          "type": "uint256"
        },
        {
          "internalType": "string",
          "name": "imageUrl",
          "type": "string"
        }
      ],
      "name": "createMemeToken",
      "outputs": [
        {
          "internalType": "address",
          "name": "",
          "type": "address"
        }
      ],
      "stateMutability": "payable",
      "type": "function"
    },
    {
      "inputs": [],
      "name": "treasury",
      "outputs": [
        {
          "internalType": "address",
          "name": "",
          "type": "address"
        }
      ],
      "stateMutability": "view",
      "type": "function"
    }
  ],
  "bytecode": "0x608060405234801561001057600080fd5b506040516111a43803806111a483398101604081905261002f91610054565b600080546001600160a01b0319166001600160a01b0392909216919091179055610084565b60006020828403121561006657600080fd5b81516001600160a01b038116811461007d57600080fd5b9392505050565b611111806100936000396000f3fe6080604052600436106200002c5760003560e01c806361d027b31462000031578063ae87d76c146200006f575b600080fd5b3480156200003e57600080fd5b5060005462000053906001600160a01b031681565b6040516001600160a01b03909116815260200160405180910390f35b62000053620000803660046200028e565b6000808585853360008054906101000a90046001600160a01b0316604051620000a990620001d5565b620000b995949392919062000372565b604051809103906000f080158015620000d6573d6000803e3d6000fd5b509050336001600160a01b03167fd7cbed4ccc2d30f2567af3bf682d3f2a07e5855c61c27ee2211330951ec4196b828888876040516200011a9493929190620003c3565b60405180910390a2348015620001cb57604051600090339083908381818185875af1925050503d80600081146200016e576040519150601f19603f3d011682016040523d82523d6000602084013e62000173565b606091505b5050905080620001c95760405162461bcd60e51b815260206004820152601960248201527f484241522042756666657220526566756e64204661696c656400000000000000604482015260640160405180910390fd5b505b5095945050505050565b610cbd806200041f83390190565b634e487b7160e01b600052604160045260246000fd5b600082601f8301126200020b57600080fd5b813567ffffffffffffffff80821115620002295762000229620001e3565b604051601f8301601f19908116603f01168101908282118183101715620002545762000254620001e3565b816040528381528660208588010111156200026e57600080fd5b836020870160208301376000602085830101528094505050505092915050565b60008060008060808587031215620002a557600080fd5b843567ffffffffffffffff80821115620002be57600080fd5b620002cc88838901620001f9565b95506020870135915080821115620002e357600080fd5b620002f188838901620001f9565b94506040870135935060608701359150808211156200030f57600080fd5b506200031e87828801620001f9565b91505092959194509250565b6000815180845260005b81811015620003525760208185018101518683018201520162000334565b506000602082860101526020601f19601f83011685010191505092915050565b60a0815260006200038760a08301886200032a565b82810360208401526200039b81886200032a565b604084019690965250506001600160a01b039283166060820152911660809091015292915050565b6001600160a01b0385168152608060208201819052600090620003e9908301866200032a565b8281036040840152620003fd81866200032a565b905082810360608401526200041381856200032a565b97965050505050505056fe60806040526002805460ff191660121790553480156200001e57600080fd5b5060405162000cbd38038062000cbd83398101604081905262000041916200021c565b60006200004f868262000344565b5060016200005e858262000344565b50600254620000729060ff16600a62000525565b6200007e90846200053a565b6003819055600090620000949060649062000554565b9050600081600354620000a8919062000577565b6001600160a01b03851660008181526004602052604080822084905551929350909160008051602062000c9d83398151915290620000e99085815260200190565b60405180910390a36001600160a01b03831660008181526004602090815260408083208690555185815260008051602062000c9d833981519152910160405180910390a3505050505050506200058d565b634e487b7160e01b600052604160045260246000fd5b600082601f8301126200016257600080fd5b81516001600160401b03808211156200017f576200017f6200013a565b604051601f8301601f19908116603f01168101908282118183101715620001aa57620001aa6200013a565b81604052838152602092508683858801011115620001c757600080fd5b600091505b83821015620001eb5785820183015181830184015290820190620001cc565b600093810190920192909252949350505050565b80516001600160a01b03811681146200021757600080fd5b919050565b600080600080600060a086880312156200023557600080fd5b85516001600160401b03808211156200024d57600080fd5b6200025b89838a0162000150565b965060208801519150808211156200027257600080fd5b50620002818882890162000150565b945050604086015192506200029960608701620001ff565b9150620002a960808701620001ff565b90509295509295909350565b600181811c90821680620002ca57607f821691505b602082108103620002eb57634e487b7160e01b600052602260045260246000fd5b50919050565b601f8211156200033f57600081815260208120601f850160051c810160208610156200031a5750805b601f850160051c820191505b818110156200033b5782815560010162000326565b5050505b505050565b81516001600160401b038111156200036057620003606200013a565b6200037881620003718454620002b5565b84620002f1565b602080601f831160018114620003b05760008415620003975750858301515b600019600386901b1c1916600185901b1785556200033b565b600085815260208120601f198616915b82811015620003e157888601518255948401946001909101908401620003c0565b5085821015620004005787850151600019600388901b60f8161c191681555b5050505050600190811b01905550565b634e487b7160e01b600052601160045260246000fd5b600181815b80851115620004675781600019048211156200044b576200044b62000410565b808516156200045957918102915b93841c93908002906200042b565b509250929050565b60008262000480575060016200051f565b816200048f575060006200051f565b8160018114620004a85760028114620004b357620004d3565b60019150506200051f565b60ff841115620004c757620004c762000410565b50506001821b6200051f565b5060208310610133831016604e8410600b8410161715620004f8575081810a6200051f565b62000504838362000426565b80600019048211156200051b576200051b62000410565b0290505b92915050565b60006200053383836200046f565b9392505050565b80820281158282048414176200051f576200051f62000410565b6000826200057257634e487b7160e01b600052601260045260246000fd5b500490565b818103818111156200051f576200051f62000410565b610700806200059d6000396000f3fe608060405234801561001057600080fd5b50600436106100935760003560e01c8063313ce56711610066578063313ce5671461010357806370a082311461012257806395d89b4114610142578063a9059cbb1461014a578063dd62ed3e1461015d57600080fd5b806306fdde0314610098578063095ea7b3146100b657806318160ddd146100d957806323b872dd146100f0575b600080fd5b6100a0610188565b6040516100ad919061052f565b60405180910390f35b6100c96100c4366004610599565b610216565b60405190151581526020016100ad565b6100e260035481565b6040519081526020016100ad565b6100c96100fe3660046105c3565b610283565b6002546101109060ff1681565b60405160ff90911681526020016100ad565b6100e26101303660046105ff565b60046020526000908152604090205481565b6100a061043e565b6100c9610158366004610599565b61044b565b6100e261016b366004610621565b600560209081526000928352604080842090915290825290205481565b6000805461019590610654565b80601f01602080910402602001604051908101604052809291908181526020018280546101c190610654565b801561020e5780601f106101e35761010080835404028352916020019161020e565b820191906000526020600020905b8154815290600101906020018083116101f157829003601f168201915b505050505081565b3360008181526005602090815260408083206001600160a01b038716808552925280832085905551919290917f8c5be1e5ebec7d5bd14f71427d1e84f3dd0314c0f7b2291e5b200ac8c7c3b925906102719086815260200190565b60405180910390a35060015b92915050565b6001600160a01b0383166000908152600460205260408120548211156102e75760405162461bcd60e51b8152602060048201526014602482015273496e73756666696369656e742062616c616e636560601b60448201526064015b60405180910390fd5b6001600160a01b03841660009081526005602090815260408083203384529091529020548211156103535760405162461bcd60e51b8152602060048201526016602482015275496e73756666696369656e7420616c6c6f77616e636560501b60448201526064016102de565b6001600160a01b0384166000908152600460205260408120805484929061037b9084906106a4565b90915550506001600160a01b038316600090815260046020526040812080548492906103a89084906106b7565b90915550506001600160a01b0384166000908152600560209081526040808320338452909152812080548492906103e09084906106a4565b92505081905550826001600160a01b0316846001600160a01b03167fddf252ad1be2c89b69c2b068fc378daa952ba7f163c4a11628f55a4df523b3ef8460405161042c91815260200190565b60405180910390a35060019392505050565b6001805461019590610654565b336000908152600460205260408120548211156104a15760405162461bcd60e51b8152602060048201526014602482015273496e73756666696369656e742062616c616e636560601b60448201526064016102de565b33600090815260046020526040812080548492906104c09084906106a4565b90915550506001600160a01b038316600090815260046020526040812080548492906104ed9084906106b7565b90915550506040518281526001600160a01b0384169033907fddf252ad1be2c89b69c2b068fc378daa952ba7f163c4a11628f55a4df523b3ef90602001610271565b600060208083528351808285015260005b8181101561055c57858101830151858201604001528201610540565b506000604082860101526040601f19601f8301168501019250505092915050565b80356001600160a01b038116811461059457600080fd5b919050565b600080604083850312156105ac57600080fd5b6105b58361057d565b946020939093013593505050565b6000806000606084860312156105d857600080fd5b6105e18461057d565b92506105ef6020850161057d565b9150604084013590509250925092565b60006020828403121561061157600080fd5b61061a8261057d565b9392505050565b6000806040838503121561063457600080fd5b61063d8361057d565b915061064b6020840161057d565b90509250929050565b600181811c9082168061066857607f821691505b60208210810361068857634e487b7160e01b600052602260045260246000fd5b50919050565b634e487b7160e01b600052601160045260246000fd5b8181038181111561027d5761027d61068e565b8082018082111561027d5761027d61068e56fea2646970667358221220ee44710b495af1ca2c0e4244e14030e28135775c07594c60e32b89164508e96764736f6c63430008140033ddf252ad1be2c89b69c2b068fc378daa952ba7f163c4a11628f55a4df523b3efa26469706673582212201dafe71a24424ec7b961685d05fc54a8de74e7f79d816188ac76e3577b7ea86764736f6c63430008140033",
  "linkReferences": {},
  "deployedLinkReferences": {}
}