{
  "_format": "hh-sol-artifact-1",
  "contractName": "TokenFactoryHTS",
  "sourceName": "contracts/TokenFactoryHTS.sol",
  "abi": [
    {
      "anonymous": false,
      "inputs": [
        {
          "indexed": true,
          "internalType": "address",
          "name": "tokenAddress",
          "type": "address"
        },
        {
          "indexed": true,
          "internalType": "address",
          "name": "liquidityPool",
          "type": "address"
        },
        {
          "indexed": false,
          "internalType": "string",
          "name": "name",
          "type": "string"
        },
        {
          "indexed": false,
          "internalType": "string",
          "name": "symbol",
          "type": "string"
        },
        {
          "indexed": false,
          "internalType": "string",
          "name": "memo",
          "type": "string"
        }
      ],
      "name": "TokenCreated",
      "type": "event"
    },
    {
      "inputs": [],
      "name": "CREATION_NETWORK_FEE",
      "outputs": [
        {
          "internalType": "uint256",
          "name": "",
          "type": "uint256"
        }
      ],
      "stateMutability": "view",
      "type": "function"
    },
    {
      "inputs": [],
      "name": "MIN_LAUNCH_VALUE",
      "outputs": [
        {
          "internalType": "uint256",
          "name": "",
          "type": "uint256"
        }
      ],
      "stateMutability": "view",
      "type": "function"
    },
    {
      "inputs": [
        {
          "internalType": "string",
          "name": "name",
          "type": "string"
        },
        {
          "internalType": "string",
          "name": "symbol",
          "type": "string"
        },
        {
          "internalType": "string",
          "name": "memo",
          "type": "string"
        },
        {
          "internalType": "int64",
          "name": "initialSupply",
          "type": "int64"
        }
      ],
      "name": "createToken",
      "outputs": [
        {
          "internalType": "address",
          "name": "",
          "type": "address"
        },
        {
          "internalType": "address",
          "name": "",
          "type": "address"
        }
      ],
      "stateMutability": "payable",
      "type": "function"
    },
    {
      "stateMutability": "payable",
      "type": "receive"
    }
  ],
  "bytecode": "0x608060405268022b1c8c1227a0000060005568056bc75e2d6310000060015534801561002a57600080fd5b506117318061003a6000396000f3fe6080604052600436106200003c5760003560e01c80632f8d5e9514620000495780634d798f701462000085578063ae31f3bf14620000ac57600080fd5b366200004457005b600080fd5b620000606200005a36600462000686565b620000c4565b604080516001600160a01b039384168152929091166020830152015b60405180910390f35b3480156200009257600080fd5b506200009d60005481565b6040519081526020016200007c565b348015620000b957600080fd5b506200009d60015481565b6000806001543410156200013a5760405162461bcd60e51b815260206004820152603260248201527f4d7573742073656e64206174206c656173742031303020484241522028466565604482015271202b20506f6f6c204c69717569646974792960701b60648201526084015b60405180910390fd5b6040805160008082526020820190925281908162000171565b6200015d6200055c565b815260200190600190039081620001535790505b50604080516060808201835260008083523060208085018290526276a700858701528551610120810187528f81529081018e9052808601919091529182018b90526080820181905260a0820181905260c0820181905260e082018590526101008201839052805493516364ef9ec560e01b815294955091939092610167916364ef9ec591906200020b9086908d906008906004016200083e565b604080518083038185885af115801562000229573d6000803e3d6000fd5b50505050506040513d601f19601f820116820180604052508101906200025091906200097d565b955090506016600782900b14620002aa5760405162461bcd60e51b815260206004820152601960248201527f48545320746f6b656e206372656174696f6e206661696c656400000000000000604482015260640162000131565b50505050600081604051620002bf90620005ba565b6001600160a01b039091168152602001604051809103906000f080158015620002ec573d6000803e3d6000fd5b5060405163a9059cbb60e01b81526001600160a01b038083166004830152600788900b60248301529192509083169063a9059cbb906044016020604051808303816000875af115801562000344573d6000803e3d6000fd5b505050506040513d601f19601f820116820180604052508101906200036a9190620009c7565b50600054680340aad21b3b700000906200038690829062000a08565b341015620003d75760405162461bcd60e51b815260206004820152601b60248201527f4d7573742073656e64206174206c656173742031303020484241520000000000604482015260640162000131565b60008160005434620003ea919062000a24565b620003f6919062000a24565b6040519091506001600160a01b0384169083156108fc029084906000818181858888f1935050505015801562000430573d6000803e3d6000fd5b50826001600160a01b031663fff6cae96040518163ffffffff1660e01b8152600401600060405180830381600087803b1580156200046d57600080fd5b505af115801562000482573d6000803e3d6000fd5b505050506000811115620004fc5760405163adc42f2960e01b815260006004820181905233602483015260448201526001600160a01b0384169063adc42f299083906064016000604051808303818588803b158015620004e157600080fd5b505af1158015620004f6573d6000803e3d6000fd5b50505050505b826001600160a01b0316846001600160a01b03167ffe210c99153843bc67efa2e9a61ec1d63c505e379b9dcf05a9520e84e36e60638c8c8c604051620005459392919062000a3a565b60405180910390a350919890975095505050505050565b604051806040016040528060008152602001620005b56040518060a0016040528060001515815260200160006001600160a01b03168152602001606081526020016060815260200160006001600160a01b031681525090565b905290565b610c788062000a8483390190565b634e487b7160e01b600052604160045260246000fd5b600082601f830112620005f057600080fd5b813567ffffffffffffffff808211156200060e576200060e620005c8565b604051601f8301601f19908116603f01168101908282118183101715620006395762000639620005c8565b816040528381528660208588010111156200065357600080fd5b836020870160208301376000602085830101528094505050505092915050565b8060070b81146200068357600080fd5b50565b600080600080608085870312156200069d57600080fd5b843567ffffffffffffffff80821115620006b657600080fd5b620006c488838901620005de565b95506020870135915080821115620006db57600080fd5b620006e988838901620005de565b945060408701359150808211156200070057600080fd5b506200070f87828801620005de565b9250506060850135620007228162000673565b939692955090935050565b6000815180845260005b81811015620007555760208185018101518683018201520162000737565b506000602082860101526020601f19601f83011685010191505092915050565b600081518084526020808501808196508360051b8101915082860160005b858110156200083157828403895281516040815186528682015191508087870152815115158187015286820151606060018060a01b03808316828a015283850151935060a09250608083818b0152620007f060e08b01866200072d565b928601518a8403603f1901858c01529294506200080e85846200072d565b9501511660c0989098019790975250509885019893509084019060010162000793565b5091979650505050505050565b60608152600084516101608060608501526200085f6101c08501836200072d565b91506020870151605f19808685030160808701526200087f84836200072d565b9350604089015191506200089e60a08701836001600160a01b03169052565b60608901519150808685030160c0870152620008bb84836200072d565b935060808901519150620008d360e087018315159052565b60a08901519150610100620008ef8188018463ffffffff169052565b60c08a0151151561012088015260e08a0151878603830161014089015292506200091a858462000775565b9450808a0151925050506200095782860182805163ffffffff90811683526020808301516001600160a01b03169084015260409182015116910152565b5050600785900b6020840152905062000975604083018460030b9052565b949350505050565b600080604083850312156200099157600080fd5b82516200099e8162000673565b60208401519092506001600160a01b0381168114620009bc57600080fd5b809150509250929050565b600060208284031215620009da57600080fd5b81518015158114620009eb57600080fd5b9392505050565b634e487b7160e01b600052601160045260246000fd5b8082018082111562000a1e5762000a1e620009f2565b92915050565b8181038181111562000a1e5762000a1e620009f2565b60608152600062000a4f60608301866200072d565b828103602084015262000a6381866200072d565b9050828103604084015262000a7981856200072d565b969550505050505056fe608060405234801561001057600080fd5b50604051610c78380380610c7883398101604081905261002f91610196565b600080546001600160a01b0383166001600160a01b031991821617825560018054909116331781556040805182815280820190915290602080830190803683370190505090508181600081518110610089576100896101c6565b6001600160a01b039092166020928302919091019091015260405160009061016790632e63879b60e01b906100c490309086906024016101dc565b60408051601f198184030181529181526020820180516001600160e01b03166001600160e01b03199094169390931790925290516101029190610238565b6000604051808303816000865af19150503d806000811461013f576040519150601f19603f3d011682016040523d82523d6000602084013e610144565b606091505b505090508061018e5760405162461bcd60e51b8152602060048201526012602482015271105cdcdbd8da585d1a5bdb8819985a5b195960721b604482015260640160405180910390fd5b505050610267565b6000602082840312156101a857600080fd5b81516001600160a01b03811681146101bf57600080fd5b9392505050565b634e487b7160e01b600052603260045260246000fd5b6001600160a01b038381168252604060208084018290528451918401829052600092858201929091906060860190855b8181101561022a57855185168352948301949183019160010161020c565b509098975050505050505050565b6000825160005b81811015610259576020818601810151858301520161023f565b506000920191825250919050565b610a02806102766000396000f3fe6080604052600436106100a05760003560e01c8063ba12d50511610064578063ba12d5051461015f578063c41596d31461017b578063d3e78e4d14610191578063ef569f9a146101a6578063f4325d67146101c6578063fff6cae9146101dc57600080fd5b806305848998146100ac5780632d11c58a146100dd578063966dae0e146100f25780639d76ea581461012a578063adc42f291461014a57600080fd5b366100a757005b600080fd5b3480156100b857600080fd5b506100ca69152d02c7e14af680000081565b6040519081526020015b60405180910390f35b3480156100e957600080fd5b506100ca600181565b3480156100fe57600080fd5b50600154610112906001600160a01b031681565b6040516001600160a01b0390911681526020016100d4565b34801561013657600080fd5b50600054610112906001600160a01b031681565b61015d61015836600461089f565b6101f1565b005b34801561016b57600080fd5b506100ca6729a2241af62c000081565b34801561018757600080fd5b506100ca60025481565b34801561019d57600080fd5b50610112600081565b3480156101b257600080fd5b5061015d6101c13660046108e1565b610547565b3480156101d257600080fd5b506100ca60035481565b3480156101e857600080fd5b5061015d610812565b600034116102375760405162461bcd60e51b815260206004820152600e60248201526d26bab9ba1039b2b73210242120a960911b60448201526064015b60405180910390fd5b69152d02c7e14af680000060025410156102b9576729a2241af62c00003411156102b95760405162461bcd60e51b815260206004820152602d60248201527f45786365656473206d617820627579206c696d6974206f66203320484241522060448201526c0c8eae4d2dcce40d8c2eadcc6d609b1b606482015260840161022e565b34600060646102c9600184610925565b6102d39190610942565b905060006102e18284610964565b90506000816002546102f39190610977565b826003546103019190610925565b61030b9190610942565b90508681101561035d5760405162461bcd60e51b815260206004820152601b60248201527f536c69707061676520746f6c6572616e63652065786365656465640000000000604482015260640161022e565b60006001600160a01b038616156103955761271061037c866014610925565b6103869190610942565b90506103928185610964565b93505b84600260008282546103a79190610977565b9250508190555081600360008282546103c09190610964565b909155505083158015906103d2575060005b1561041d5760405160009085156108fc0290869083818181858288f19350505050158015610404573d6000803e3d6000fd5b5083600260008282546104179190610964565b90915550505b8015610472576040516001600160a01b0387169082156108fc029083906000818181858888f19350505050158015610459573d6000803e3d6000fd5b50806002600082825461046c9190610964565b90915550505b60005460405163a9059cbb60e01b81526001600160a01b038981166004830152602482018590529091169063a9059cbb906044016020604051808303816000875af11580156104c5573d6000803e3d6000fd5b505050506040513d601f19601f820116820180604052508101906104e9919061098a565b5060408051868152600060208201819052818301526060810184905290516001600160a01b038916917f49926bbebe8474393f434dfa4f78694c0923efa07d19f2284518bfabd06eb737919081900360800190a25050505050505050565b6000831161058a5760405162461bcd60e51b815260206004820152601060248201526f4d7573742073656e6420746f6b656e7360801b604482015260640161022e565b60008360035461059a9190610977565b846002546105a89190610925565b6105b29190610942565b9050600060646105c3600184610925565b6105cd9190610942565b905060006105db8284610964565b90508481101561062d5760405162461bcd60e51b815260206004820152601b60248201527f536c69707061676520746f6c6572616e63652065786365656465640000000000604482015260640161022e565b60006001600160a01b038516156106655761271061064c856014610925565b6106569190610942565b90506106628184610964565b92505b6000546040516323b872dd60e01b8152336004820152306024820152604481018990526001600160a01b03909116906323b872dd906064016020604051808303816000875af11580156106bc573d6000803e3d6000fd5b505050506040513d601f19601f820116820180604052508101906106e0919061098a565b5086600360008282546106f39190610977565b92505081905550836002600082825461070c9190610964565b9091555050604051339083156108fc029084906000818181858888f1935050505015801561073e573d6000803e3d6000fd5b5060008311801561074d575060005b156107815760405160009084156108fc0290859083818181858288f1935050505015801561077f573d6000803e3d6000fd5b505b80156107bf576040516001600160a01b0386169082156108fc029083906000818181858888f193505050501580156107bd573d6000803e3d6000fd5b505b604080516000808252602082018a90528183018590526060820152905133917f49926bbebe8474393f434dfa4f78694c0923efa07d19f2284518bfabd06eb737919081900360800190a250505050505050565b476002556000546040516370a0823160e01b81523060048201526001600160a01b03909116906370a0823190602401602060405180830381865afa15801561085e573d6000803e3d6000fd5b505050506040513d601f19601f8201168201806040525081019061088291906109b3565b600355565b6001600160a01b038116811461089c57600080fd5b50565b6000806000606084860312156108b457600080fd5b8335925060208401356108c681610887565b915060408401356108d681610887565b809150509250925092565b6000806000606084860312156108f657600080fd5b833592506020840135915060408401356108d681610887565b634e487b7160e01b600052601160045260246000fd5b808202811582820484141761093c5761093c61090f565b92915050565b60008261095f57634e487b7160e01b600052601260045260246000fd5b500490565b8181038181111561093c5761093c61090f565b8082018082111561093c5761093c61090f565b60006020828403121561099c57600080fd5b815180151581146109ac57600080fd5b9392505050565b6000602082840312156109c557600080fd5b505191905056fea264697066735822122089baacbd1a5839c9bd3dc7bac1ea9d36c1855ed310fe6c37aad67f8eb3b7f55a64736f6c63430008140033a264697066735822122074a023327bfa49f4e32e40a28701e41dcf3123e0cf0292626940ac8ed1af8d4264736f6c63430008140033",
  "linkReferences": {},
  "deployedLinkReferences": {}
}